{"contracts/TokenFactory.sol":{"TokenFactory":{"abi":[{"inputs":[{"internalType":"address","name":"_tokenTemplate","type":"address"},{"internalType":"address","name":"_bankOracle","type":"address"},{"internalType":"address","name":"_proxyAdmin","type":"address"}],"stateMutability":"nonpayable","type":"constructor"},{"anonymous":false,"inputs":[{"indexed":true,"internalType":"address","name":"token","type":"address"},{"indexed":true,"internalType":"address","name":"proxy","type":"address"},{"indexed":true,"internalType":"address","name":"deployer","type":"address"},{"indexed":false,"internalType":"string","name":"name","type":"string"},{"indexed":false,"internalType":"string","name":"symbol","type":"string"}],"name":"TokenDeployed","type":"event"},{"inputs":[],"name":"bankOracle","outputs":[{"internalType":"address","name":"","type":"address"}],"stateMutability":"view","type":"function"},{"inputs":[{"internalType":"string","name":"name","type":"string"},{"internalType":"string","name":"symbol","type":"string"},{"internalType":"address","name":"masterMinter","type":"address"},{"internalType":"address","name":"pauser","type":"address"},{"internalType":"address","name":"blacklister","type":"address"},{"internalType":"address","name":"owner","type":"address"}],"name":"deployToken","outputs":[{"internalType":"address","name":"tokenProxy","type":"address"},{"internalType":"address","name":"implementation","type":"address"}],"stateMutability":"nonpayable","type":"function"},{"inputs":[{"internalType":"uint256","name":"","type":"uint256"}],"name":"deployments","outputs":[{"internalType":"address","name":"tokenAddress","type":"address"},{"internalType":"address","name":"proxyAddress","type":"address"},{"internalType":"string","name":"name","type":"string"},{"internalType":"string","name":"symbol","type":"string"},{"internalType":"address","name":"deployer","type":"address"},{"internalType":"uint256","name":"deployedAt","type":"uint256"}],"stateMutability":"view","type":"function"},{"inputs":[],"name":"proxyAdmin","outputs":[{"internalType":"address","name":"","type":"address"}],"stateMutability":"view","type":"function"},{"inputs":[],"name":"tokenTemplate","outputs":[{"internalType":"address","name":"","type":"address"}],"stateMutability":"view","type":"function"}],"evm":{"bytecode":{"linkReferences":{},"object":"60c060405234801561001057600080fd5b50604051610eac380380610eac83398101604081905261002f91610079565b6001600160a01b0392831660805290821660a052600080546001600160a01b031916919092161790556100bc565b80516001600160a01b038116811461007457600080fd5b919050565b60008060006060848603121561008e57600080fd5b6100978461005d565b92506100a56020850161005d565b91506100b36040850161005d565b90509250925092565b60805160a051610dbe6100ee6000396000818161011401526103a9015260008181608f01526102ae0152610dbe6000f3fe608060405234801561001057600080fd5b50600436106100575760003560e01c806306609bbe1461005c5780630814d3dd1461008a5780633e47158c146100c95780638efca370146100dc578063e89645351461010f575b600080fd5b61006f61006a366004610692565b610136565b604051610081969594939291906106fb565b60405180910390f35b6100b17f000000000000000000000000000000000000000000000000000000000000000081565b6040516001600160a01b039091168152602001610081565b6000546100b1906001600160a01b031681565b6100ef6100ea366004610808565b6102a6565b604080516001600160a01b03938416815292909116602083015201610081565b6100b17f000000000000000000000000000000000000000000000000000000000000000081565b6001818154811061014657600080fd5b60009182526020909120600690910201805460018201546002830180546001600160a01b03938416955092909116929161017f906108ad565b80601f01602080910402602001604051908101604052809291908181526020018280546101ab906108ad565b80156101f85780601f106101cd576101008083540402835291602001916101f8565b820191906000526020600020905b8154815290600101906020018083116101db57829003601f168201915b50505050509080600301805461020d906108ad565b80601f0160208091040260200160405190810160405280929190818152602001828054610239906108ad565b80156102865780601f1061025b57610100808354040283529160200191610286565b820191906000526020600020905b81548152906001019060200180831161026957829003601f168201915b50505050600483015460059093015491926001600160a01b031691905086565b6000806102d27f00000000000000000000000000000000000000000000000000000000000000006105e7565b90506000604051806020016102e690610685565b601f1982820381018352601f9091011660408181526001600160a01b03851660208301520160408051601f198184030181529082905261032992916020016108e7565b6040516020818303038152906040529050600089894260405160200161035193929190610916565b604051602081830303815290604052805190602001209050808251602084016000f56040516316a3c6bd60e01b81529094506001600160a01b038516906316a3c6bd906103d1908d908d906002908e908e908e908e907f00000000000000000000000000000000000000000000000000000000000000009060040161094b565b600060405180830381600087803b1580156103eb57600080fd5b505af11580156103ff573d6000803e3d6000fd5b50506000546040516308f2839760e41b81526001600160a01b0391821660048201529087169250638f2839709150602401600060405180830381600087803b15801561044a57600080fd5b505af115801561045e573d6000803e3d6000fd5b50506040805160c0810182526001600160a01b038088168252888116602083019081529282018f8152606083018f90523360808401524260a0840152600180548082018255600091909152835160069091027fb10e2d527612073b26eecdfd717e6a320cf44b4afac2b0732d9fcbe2b7fa0cf6810180549285166001600160a01b031993841617815595517fb10e2d527612073b26eecdfd717e6a320cf44b4afac2b0732d9fcbe2b7fa0cf78201805491909516921691909117909255519194509192507fb10e2d527612073b26eecdfd717e6a320cf44b4afac2b0732d9fcbe2b7fa0cf8909101906105519082610a27565b50606082015160038201906105669082610a27565b5060808201516004820180546001600160a01b0319166001600160a01b0392831617905560a090920151600590910155604051339185811691908716907f70d9081689458ea5f3e04968e1e634552d71b95d95003fc17d803e51fe3e7395906105d2908f908f90610ae7565b60405180910390a45050965096945050505050565b6000763d602d80600a3d3981f3363d3d373d3d3d363d730000008260601b60e81c176000526e5af43d82803e903d91602b57fd5bf38260781b17602052603760096000f090506001600160a01b0381166106805760405162461bcd60e51b8152602060048201526016602482015275115490cc4c4d8dce8818dc99585d194819985a5b195960521b604482015260640160405180910390fd5b919050565b61027380610b1683390190565b6000602082840312156106a457600080fd5b5035919050565b60005b838110156106c65781810151838201526020016106ae565b50506000910152565b600081518084526106e78160208601602086016106ab565b601f01601f19169290920160200192915050565b600060018060a01b038089168352808816602084015260c0604084015261072560c08401886106cf565b838103606085015261073781886106cf565b959091166080840152505060a00152949350505050565b634e487b7160e01b600052604160045260246000fd5b600082601f83011261077557600080fd5b813567ffffffffffffffff808211156107905761079061074e565b604051601f8301601f19908116603f011681019082821181831017156107b8576107b861074e565b816040528381528660208588010111156107d157600080fd5b836020870160208301376000602085830101528094505050505092915050565b80356001600160a01b038116811461068057600080fd5b60008060008060008060c0878903121561082157600080fd5b863567ffffffffffffffff8082111561083957600080fd5b6108458a838b01610764565b9750602089013591508082111561085b57600080fd5b5061086889828a01610764565b955050610877604088016107f1565b9350610885606088016107f1565b9250610893608088016107f1565b91506108a160a088016107f1565b90509295509295509295565b600181811c908216806108c157607f821691505b6020821081036108e157634e487b7160e01b600052602260045260246000fd5b50919050565b600083516108f98184602088016106ab565b83519083019061090d8183602088016106ab565b01949350505050565b600084516109288184602089016106ab565b84519083019061093c8183602089016106ab565b01928352505060200192915050565b600061012080835261095f8184018c6106cf565b90508281036020840152610973818b6106cf565b838103604080860191909152600382526210949360ea1b602083015260ff9a909a1660608501526001600160a01b03988916608085015296881660a0840152505092851660c084015290841660e0830152909216610100909201919091520192915050565b601f821115610a2257600081815260208120601f850160051c810160208610156109ff5750805b601f850160051c820191505b81811015610a1e57828155600101610a0b565b5050505b505050565b815167ffffffffffffffff811115610a4157610a4161074e565b610a5581610a4f84546108ad565b846109d8565b602080601f831160018114610a8a5760008415610a725750858301515b600019600386901b1c1916600185901b178555610a1e565b600085815260208120601f198616915b82811015610ab957888601518255948401946001909101908401610a9a565b5085821015610ad75787850151600019600388901b60f8161c191681555b5050505050600190811b01905550565b604081526000610afa60408301856106cf565b8281036020840152610b0c81856106cf565b9594505050505056fe608060405234801561001057600080fd5b5060405161027338038061027383398101604081905261002f9161005d565b600080546001600160a01b039092166001600160a01b0319928316179055600180549091163317905561008d565b60006020828403121561006f57600080fd5b81516001600160a01b038116811461008657600080fd5b9392505050565b6101d78061009c6000396000f3fe6080604052600436106100385760003560e01c80635c60da1b146100755780638f283970146100b1578063f851a440146100d15761003f565b3661003f57005b600080546040516001600160a01b0390911691369082376000803683855af43d806000843e81801561006f578184f35b8184fd5b005b34801561008157600080fd5b50600054610095906001600160a01b031681565b6040516001600160a01b03909116815260200160405180910390f35b3480156100bd57600080fd5b506100736100cc366004610171565b6100f1565b3480156100dd57600080fd5b50600154610095906001600160a01b031681565b6001546001600160a01b0316331461014f5760405162461bcd60e51b815260206004820152601b60248201527f4f6e6c792061646d696e2063616e206368616e67652061646d696e0000000000604482015260640160405180910390fd5b600180546001600160a01b0319166001600160a01b0392909216919091179055565b60006020828403121561018357600080fd5b81356001600160a01b038116811461019a57600080fd5b939250505056fea26469706673582212203ac1ee47c6b2c5b40faab9a363e46dbbb6264a540fc8c9faf7c88ab70b75a35b64736f6c63430008130033a264697066735822122014684fee707a04d5ff60c5209d0a775eb337074b959c1a166d04d4634089060564736f6c63430008130033","opcodes":"PUSH1 0xC0 PUSH1 0x40 MSTORE CALLVALUE DUP1 ISZERO PUSH2 0x10 JUMPI PUSH1 0x0 DUP1 REVERT JUMPDEST POP PUSH1 0x40 MLOAD PUSH2 0xEAC CODESIZE SUB DUP1 PUSH2 0xEAC DUP4 CODECOPY DUP2 ADD PUSH1 0x40 DUP2 SWAP1 MSTORE PUSH2 0x2F SWAP2 PUSH2 0x79 JUMP JUMPDEST PUSH1 0x1 PUSH1 0x1 PUSH1 0xA0 SHL SUB SWAP3 DUP4 AND PUSH1 0x80 MSTORE SWAP1 DUP3 AND PUSH1 0xA0 MSTORE PUSH1 0x0 DUP1 SLOAD PUSH1 0x1 PUSH1 0x1 PUSH1 0xA0 SHL SUB NOT AND SWAP2 SWAP1 SWAP3 AND OR SWAP1 SSTORE PUSH2 0xBC JUMP JUMPDEST DUP1 MLOAD PUSH1 0x1 PUSH1 0x1 PUSH1 0xA0 SHL SUB DUP2 AND DUP2 EQ PUSH2 0x74 JUMPI PUSH1 0x0 DUP1 REVERT JUMPDEST SWAP2 SWAP1 POP JUMP JUMPDEST PUSH1 0x0 DUP1 PUSH1 0x0 PUSH1 0x60 DUP5 DUP7 SUB SLT ISZERO PUSH2 0x8E JUMPI PUSH1 0x0 DUP1 REVERT JUMPDEST PUSH2 0x97 DUP5 PUSH2 0x5D JUMP JUMPDEST SWAP3 POP PUSH2 0xA5 PUSH1 0x20 DUP6 ADD PUSH2 0x5D JUMP JUMPDEST SWAP2 POP PUSH2 0xB3 PUSH1 0x40 DUP6 ADD PUSH2 0x5D JUMP JUMPDEST SWAP1 POP SWAP3 POP SWAP3 POP SWAP3 JUMP JUMPDEST PUSH1 0x80 MLOAD PUSH1 0xA0 MLOAD PUSH2 0xDBE PUSH2 0xEE PUSH1 0x0 CODECOPY PUSH1 0x0 DUP2 DUP2 PUSH2 0x114 ADD MSTORE PUSH2 0x3A9 ADD MSTORE PUSH1 0x0 DUP2 DUP2 PUSH1 0x8F ADD MSTORE PUSH2 0x2AE ADD MSTORE PUSH2 0xDBE PUSH1 0x0 RETURN INVALID PUSH1 0x80 PUSH1 0x40 MSTORE CALLVALUE DUP1 ISZERO PUSH2 0x10 JUMPI PUSH1 0x0 DUP1 REVERT JUMPDEST POP PUSH1 0x4 CALLDATASIZE LT PUSH2 0x57 JUMPI PUSH1 0x0 CALLDATALOAD PUSH1 0xE0 SHR DUP1 PUSH4 0x6609BBE EQ PUSH2 0x5C JUMPI DUP1 PUSH4 0x814D3DD EQ PUSH2 0x8A JUMPI DUP1 PUSH4 0x3E47158C EQ PUSH2 0xC9 JUMPI DUP1 PUSH4 0x8EFCA370 EQ PUSH2 0xDC JUMPI DUP1 PUSH4 0xE8964535 EQ PUSH2 0x10F JUMPI JUMPDEST PUSH1 0x0 DUP1 REVERT JUMPDEST PUSH2 0x6F PUSH2 0x6A CALLDATASIZE PUSH1 0x4 PUSH2 0x692 JUMP JUMPDEST PUSH2 0x136 JUMP JUMPDEST PUSH1 0x40 MLOAD PUSH2 0x81 SWAP7 SWAP6 SWAP5 SWAP4 SWAP3 SWAP2 SWAP1 PUSH2 0x6FB JUMP JUMPDEST PUSH1 0x40 MLOAD DUP1 SWAP2 SUB SWAP1 RETURN JUMPDEST PUSH2 0xB1 PUSH32 0x0 DUP2 JUMP JUMPDEST PUSH1 0x40 MLOAD PUSH1 0x1 PUSH1 0x1 PUSH1 0xA0 SHL SUB SWAP1 SWAP2 AND DUP2 MSTORE PUSH1 0x20 ADD PUSH2 0x81 JUMP JUMPDEST PUSH1 0x0 SLOAD PUSH2 0xB1 SWAP1 PUSH1 0x1 PUSH1 0x1 PUSH1 0xA0 SHL SUB AND DUP2 JUMP JUMPDEST PUSH2 0xEF PUSH2 0xEA CALLDATASIZE PUSH1 0x4 PUSH2 0x808 JUMP JUMPDEST PUSH2 0x2A6 JUMP JUMPDEST PUSH1 0x40 DUP1 MLOAD PUSH1 0x1 PUSH1 0x1 PUSH1 0xA0 SHL SUB SWAP4 DUP5 AND DUP2 MSTORE SWAP3 SWAP1 SWAP2 AND PUSH1 0x20 DUP4 ADD MSTORE ADD PUSH2 0x81 JUMP JUMPDEST PUSH2 0xB1 PUSH32 0x0 DUP2 JUMP JUMPDEST PUSH1 0x1 DUP2 DUP2 SLOAD DUP2 LT PUSH2 0x146 JUMPI PUSH1 0x0 DUP1 REVERT JUMPDEST PUSH1 0x0 SWAP2 DUP3 MSTORE PUSH1 0x20 SWAP1 SWAP2 KECCAK256 PUSH1 0x6 SWAP1 SWAP2 MUL ADD DUP1 SLOAD PUSH1 0x1 DUP3 ADD SLOAD PUSH1 0x2 DUP4 ADD DUP1 SLOAD PUSH1 0x1 PUSH1 0x1 PUSH1 0xA0 SHL SUB SWAP4 DUP5 AND SWAP6 POP SWAP3 SWAP1 SWAP2 AND SWAP3 SWAP2 PUSH2 0x17F SWAP1 PUSH2 0x8AD JUMP JUMPDEST DUP1 PUSH1 0x1F ADD PUSH1 0x20 DUP1 SWAP2 DIV MUL PUSH1 0x20 ADD PUSH1 0x40 MLOAD SWAP1 DUP2 ADD PUSH1 0x40 MSTORE DUP1 SWAP3 SWAP2 SWAP1 DUP2 DUP2 MSTORE PUSH1 0x20 ADD DUP3 DUP1 SLOAD PUSH2 0x1AB SWAP1 PUSH2 0x8AD JUMP JUMPDEST DUP1 ISZERO PUSH2 0x1F8 JUMPI DUP1 PUSH1 0x1F LT PUSH2 0x1CD JUMPI PUSH2 0x100 DUP1 DUP4 SLOAD DIV MUL DUP4 MSTORE SWAP2 PUSH1 0x20 ADD SWAP2 PUSH2 0x1F8 JUMP JUMPDEST DUP3 ADD SWAP2 SWAP1 PUSH1 0x0 MSTORE PUSH1 0x20 PUSH1 0x0 KECCAK256 SWAP1 JUMPDEST DUP2 SLOAD DUP2 MSTORE SWAP1 PUSH1 0x1 ADD SWAP1 PUSH1 0x20 ADD DUP1 DUP4 GT PUSH2 0x1DB JUMPI DUP3 SWAP1 SUB PUSH1 0x1F AND DUP3 ADD SWAP2 JUMPDEST POP POP POP POP POP SWAP1 DUP1 PUSH1 0x3 ADD DUP1 SLOAD PUSH2 0x20D SWAP1 PUSH2 0x8AD JUMP JUMPDEST DUP1 PUSH1 0x1F ADD PUSH1 0x20 DUP1 SWAP2 DIV MUL PUSH1 0x20 ADD PUSH1 0x40 MLOAD SWAP1 DUP2 ADD PUSH1 0x40 MSTORE DUP1 SWAP3 SWAP2 SWAP1 DUP2 DUP2 MSTORE PUSH1 0x20 ADD DUP3 DUP1 SLOAD PUSH2 0x239 SWAP1 PUSH2 0x8AD JUMP JUMPDEST DUP1 ISZERO PUSH2 0x286 JUMPI DUP1 PUSH1 0x1F LT PUSH2 0x25B JUMPI PUSH2 0x100 DUP1 DUP4 SLOAD DIV MUL DUP4 MSTORE SWAP2 PUSH1 0x20 ADD SWAP2 PUSH2 0x286 JUMP JUMPDEST DUP3 ADD SWAP2 SWAP1 PUSH1 0x0 MSTORE PUSH1 0x20 PUSH1 0x0 KECCAK256 SWAP1 JUMPDEST DUP2 SLOAD DUP2 MSTORE SWAP1 PUSH1 0x1 ADD SWAP1 PUSH1 0x20 ADD DUP1 DUP4 GT PUSH2 0x269 JUMPI DUP3 SWAP1 SUB PUSH1 0x1F AND DUP3 ADD SWAP2 JUMPDEST POP POP POP POP PUSH1 0x4 DUP4 ADD SLOAD PUSH1 0x5 SWAP1 SWAP4 ADD SLOAD SWAP2 SWAP3 PUSH1 0x1 PUSH1 0x1 PUSH1 0xA0 SHL SUB AND SWAP2 SWAP1 POP DUP7 JUMP JUMPDEST PUSH1 0x0 DUP1 PUSH2 0x2D2 PUSH32 0x0 PUSH2 0x5E7 JUMP JUMPDEST SWAP1 POP PUSH1 0x0 PUSH1 0x40 MLOAD DUP1 PUSH1 0x20 ADD PUSH2 0x2E6 SWAP1 PUSH2 0x685 JUMP JUMPDEST PUSH1 0x1F NOT DUP3 DUP3 SUB DUP2 ADD DUP4 MSTORE PUSH1 0x1F SWAP1 SWAP2 ADD AND PUSH1 0x40 DUP2 DUP2 MSTORE PUSH1 0x1 PUSH1 0x1 PUSH1 0xA0 SHL SUB DUP6 AND PUSH1 0x20 DUP4 ADD MSTORE ADD PUSH1 0x40 DUP1 MLOAD PUSH1 0x1F NOT DUP2 DUP5 SUB ADD DUP2 MSTORE SWAP1 DUP3 SWAP1 MSTORE PUSH2 0x329 SWAP3 SWAP2 PUSH1 0x20 ADD PUSH2 0x8E7 JUMP JUMPDEST PUSH1 0x40 MLOAD PUSH1 0x20 DUP2 DUP4 SUB SUB DUP2 MSTORE SWAP1 PUSH1 0x40 MSTORE SWAP1 POP PUSH1 0x0 DUP10 DUP10 TIMESTAMP PUSH1 0x40 MLOAD PUSH1 0x20 ADD PUSH2 0x351 SWAP4 SWAP3 SWAP2 SWAP1 PUSH2 0x916 JUMP JUMPDEST PUSH1 0x40 MLOAD PUSH1 0x20 DUP2 DUP4 SUB SUB DUP2 MSTORE SWAP1 PUSH1 0x40 MSTORE DUP1 MLOAD SWAP1 PUSH1 0x20 ADD KECCAK256 SWAP1 POP DUP1 DUP3 MLOAD PUSH1 0x20 DUP5 ADD PUSH1 0x0 CREATE2 PUSH1 0x40 MLOAD PUSH4 0x16A3C6BD PUSH1 0xE0 SHL DUP2 MSTORE SWAP1 SWAP5 POP PUSH1 0x1 PUSH1 0x1 PUSH1 0xA0 SHL SUB DUP6 AND SWAP1 PUSH4 0x16A3C6BD SWAP1 PUSH2 0x3D1 SWAP1 DUP14 SWAP1 DUP14 SWAP1 PUSH1 0x2 SWAP1 DUP15 SWAP1 DUP15 SWAP1 DUP15 SWAP1 DUP15 SWAP1 PUSH32 0x0 SWAP1 PUSH1 0x4 ADD PUSH2 0x94B JUMP JUMPDEST PUSH1 0x0 PUSH1 0x40 MLOAD DUP1 DUP4 SUB DUP2 PUSH1 0x0 DUP8 DUP1 EXTCODESIZE ISZERO DUP1 ISZERO PUSH2 0x3EB JUMPI PUSH1 0x0 DUP1 REVERT JUMPDEST POP GAS CALL ISZERO DUP1 ISZERO PUSH2 0x3FF JUMPI RETURNDATASIZE PUSH1 0x0 DUP1 RETURNDATACOPY RETURNDATASIZE PUSH1 0x0 REVERT JUMPDEST POP POP PUSH1 0x0 SLOAD PUSH1 0x40 MLOAD PUSH4 0x8F28397 PUSH1 0xE4 SHL DUP2 MSTORE PUSH1 0x1 PUSH1 0x1 PUSH1 0xA0 SHL SUB SWAP2 DUP3 AND PUSH1 0x4 DUP3 ADD MSTORE SWAP1 DUP8 AND SWAP3 POP PUSH4 0x8F283970 SWAP2 POP PUSH1 0x24 ADD PUSH1 0x0 PUSH1 0x40 MLOAD DUP1 DUP4 SUB DUP2 PUSH1 0x0 DUP8 DUP1 EXTCODESIZE ISZERO DUP1 ISZERO PUSH2 0x44A JUMPI PUSH1 0x0 DUP1 REVERT JUMPDEST POP GAS CALL ISZERO DUP1 ISZERO PUSH2 0x45E JUMPI RETURNDATASIZE PUSH1 0x0 DUP1 RETURNDATACOPY RETURNDATASIZE PUSH1 0x0 REVERT JUMPDEST POP POP PUSH1 0x40 DUP1 MLOAD PUSH1 0xC0 DUP2 ADD DUP3 MSTORE PUSH1 0x1 PUSH1 0x1 PUSH1 0xA0 SHL SUB DUP1 DUP9 AND DUP3 MSTORE DUP9 DUP2 AND PUSH1 0x20 DUP4 ADD SWAP1 DUP2 MSTORE SWAP3 DUP3 ADD DUP16 DUP2 MSTORE PUSH1 0x60 DUP4 ADD DUP16 SWAP1 MSTORE CALLER PUSH1 0x80 DUP5 ADD MSTORE TIMESTAMP PUSH1 0xA0 DUP5 ADD MSTORE PUSH1 0x1 DUP1 SLOAD DUP1 DUP3 ADD DUP3 SSTORE PUSH1 0x0 SWAP2 SWAP1 SWAP2 MSTORE DUP4 MLOAD PUSH1 0x6 SWAP1 SWAP2 MUL PUSH32 0xB10E2D527612073B26EECDFD717E6A320CF44B4AFAC2B0732D9FCBE2B7FA0CF6 DUP2 ADD DUP1 SLOAD SWAP3 DUP6 AND PUSH1 0x1 PUSH1 0x1 PUSH1 0xA0 SHL SUB NOT SWAP4 DUP5 AND OR DUP2 SSTORE SWAP6 MLOAD PUSH32 0xB10E2D527612073B26EECDFD717E6A320CF44B4AFAC2B0732D9FCBE2B7FA0CF7 DUP3 ADD DUP1 SLOAD SWAP2 SWAP1 SWAP6 AND SWAP3 AND SWAP2 SWAP1 SWAP2 OR SWAP1 SWAP3 SSTORE MLOAD SWAP2 SWAP5 POP SWAP2 SWAP3 POP PUSH32 0xB10E2D527612073B26EECDFD717E6A320CF44B4AFAC2B0732D9FCBE2B7FA0CF8 SWAP1 SWAP2 ADD SWAP1 PUSH2 0x551 SWAP1 DUP3 PUSH2 0xA27 JUMP JUMPDEST POP PUSH1 0x60 DUP3 ADD MLOAD PUSH1 0x3 DUP3 ADD SWAP1 PUSH2 0x566 SWAP1 DUP3 PUSH2 0xA27 JUMP JUMPDEST POP PUSH1 0x80 DUP3 ADD MLOAD PUSH1 0x4 DUP3 ADD DUP1 SLOAD PUSH1 0x1 PUSH1 0x1 PUSH1 0xA0 SHL SUB NOT AND PUSH1 0x1 PUSH1 0x1 PUSH1 0xA0 SHL SUB SWAP3 DUP4 AND OR SWAP1 SSTORE PUSH1 0xA0 SWAP1 SWAP3 ADD MLOAD PUSH1 0x5 SWAP1 SWAP2 ADD SSTORE PUSH1 0x40 MLOAD CALLER SWAP2 DUP6 DUP2 AND SWAP2 SWAP1 DUP8 AND SWAP1 PUSH32 0x70D9081689458EA5F3E04968E1E634552D71B95D95003FC17D803E51FE3E7395 SWAP1 PUSH2 0x5D2 SWAP1 DUP16 SWAP1 DUP16 SWAP1 PUSH2 0xAE7 JUMP JUMPDEST PUSH1 0x40 MLOAD DUP1 SWAP2 SUB SWAP1 LOG4 POP POP SWAP7 POP SWAP7 SWAP5 POP POP POP POP POP JUMP JUMPDEST PUSH1 0x0 PUSH23 0x3D602D80600A3D3981F3363D3D373D3D3D363D73000000 DUP3 PUSH1 0x60 SHL PUSH1 0xE8 SHR OR PUSH1 0x0 MSTORE PUSH15 0x5AF43D82803E903D91602B57FD5BF3 DUP3 PUSH1 0x78 SHL OR PUSH1 0x20 MSTORE PUSH1 0x37 PUSH1 0x9 PUSH1 0x0 CREATE SWAP1 POP PUSH1 0x1 PUSH1 0x1 PUSH1 0xA0 SHL SUB DUP2 AND PUSH2 0x680 JUMPI PUSH1 0x40 MLOAD PUSH3 0x461BCD PUSH1 0xE5 SHL DUP2 MSTORE PUSH1 0x20 PUSH1 0x4 DUP3 ADD MSTORE PUSH1 0x16 PUSH1 0x24 DUP3 ADD MSTORE PUSH22 0x115490CC4C4D8DCE8818DC99585D194819985A5B1959 PUSH1 0x52 SHL PUSH1 0x44 DUP3 ADD MSTORE PUSH1 0x64 ADD PUSH1 0x40 MLOAD DUP1 SWAP2 SUB SWAP1 REVERT JUMPDEST SWAP2 SWAP1 POP JUMP JUMPDEST PUSH2 0x273 DUP1 PUSH2 0xB16 DUP4 CODECOPY ADD SWAP1 JUMP JUMPDEST PUSH1 0x0 PUSH1 0x20 DUP3 DUP5 SUB SLT ISZERO PUSH2 0x6A4 JUMPI PUSH1 0x0 DUP1 REVERT JUMPDEST POP CALLDATALOAD SWAP2 SWAP1 POP JUMP JUMPDEST PUSH1 0x0 JUMPDEST DUP4 DUP2 LT ISZERO PUSH2 0x6C6 JUMPI DUP2 DUP2 ADD MLOAD DUP4 DUP3 ADD MSTORE PUSH1 0x20 ADD PUSH2 0x6AE JUMP JUMPDEST POP POP PUSH1 0x0 SWAP2 ADD MSTORE JUMP JUMPDEST PUSH1 0x0 DUP2 MLOAD DUP1 DUP5 MSTORE PUSH2 0x6E7 DUP2 PUSH1 0x20 DUP7 ADD PUSH1 0x20 DUP7 ADD PUSH2 0x6AB JUMP JUMPDEST PUSH1 0x1F ADD PUSH1 0x1F NOT AND SWAP3 SWAP1 SWAP3 ADD PUSH1 0x20 ADD SWAP3 SWAP2 POP POP JUMP JUMPDEST PUSH1 0x0 PUSH1 0x1 DUP1 PUSH1 0xA0 SHL SUB DUP1 DUP10 AND DUP4 MSTORE DUP1 DUP9 AND PUSH1 0x20 DUP5 ADD MSTORE PUSH1 0xC0 PUSH1 0x40 DUP5 ADD MSTORE PUSH2 0x725 PUSH1 0xC0 DUP5 ADD DUP9 PUSH2 0x6CF JUMP JUMPDEST DUP4 DUP2 SUB PUSH1 0x60 DUP6 ADD MSTORE PUSH2 0x737 DUP2 DUP9 PUSH2 0x6CF JUMP JUMPDEST SWAP6 SWAP1 SWAP2 AND PUSH1 0x80 DUP5 ADD MSTORE POP POP PUSH1 0xA0 ADD MSTORE SWAP5 SWAP4 POP POP POP POP JUMP JUMPDEST PUSH4 0x4E487B71 PUSH1 0xE0 SHL PUSH1 0x0 MSTORE PUSH1 0x41 PUSH1 0x4 MSTORE PUSH1 0x24 PUSH1 0x0 REVERT JUMPDEST PUSH1 0x0 DUP3 PUSH1 0x1F DUP4 ADD SLT PUSH2 0x775 JUMPI PUSH1 0x0 DUP1 REVERT JUMPDEST DUP2 CALLDATALOAD PUSH8 0xFFFFFFFFFFFFFFFF DUP1 DUP3 GT ISZERO PUSH2 0x790 JUMPI PUSH2 0x790 PUSH2 0x74E JUMP JUMPDEST PUSH1 0x40 MLOAD PUSH1 0x1F DUP4 ADD PUSH1 0x1F NOT SWAP1 DUP2 AND PUSH1 0x3F ADD AND DUP2 ADD SWAP1 DUP3 DUP3 GT DUP2 DUP4 LT OR ISZERO PUSH2 0x7B8 JUMPI PUSH2 0x7B8 PUSH2 0x74E JUMP JUMPDEST DUP2 PUSH1 0x40 MSTORE DUP4 DUP2 MSTORE DUP7 PUSH1 0x20 DUP6 DUP9 ADD ADD GT ISZERO PUSH2 0x7D1 JUMPI PUSH1 0x0 DUP1 REVERT JUMPDEST DUP4 PUSH1 0x20 DUP8 ADD PUSH1 0x20 DUP4 ADD CALLDATACOPY PUSH1 0x0 PUSH1 0x20 DUP6 DUP4 ADD ADD MSTORE DUP1 SWAP5 POP POP POP POP POP SWAP3 SWAP2 POP POP JUMP JUMPDEST DUP1 CALLDATALOAD PUSH1 0x1 PUSH1 0x1 PUSH1 0xA0 SHL SUB DUP2 AND DUP2 EQ PUSH2 0x680 JUMPI PUSH1 0x0 DUP1 REVERT JUMPDEST PUSH1 0x0 DUP1 PUSH1 0x0 DUP1 PUSH1 0x0 DUP1 PUSH1 0xC0 DUP8 DUP10 SUB SLT ISZERO PUSH2 0x821 JUMPI PUSH1 0x0 DUP1 REVERT JUMPDEST DUP7 CALLDATALOAD PUSH8 0xFFFFFFFFFFFFFFFF DUP1 DUP3 GT ISZERO PUSH2 0x839 JUMPI PUSH1 0x0 DUP1 REVERT JUMPDEST PUSH2 0x845 DUP11 DUP4 DUP12 ADD PUSH2 0x764 JUMP JUMPDEST SWAP8 POP PUSH1 0x20 DUP10 ADD CALLDATALOAD SWAP2 POP DUP1 DUP3 GT ISZERO PUSH2 0x85B JUMPI PUSH1 0x0 DUP1 REVERT JUMPDEST POP PUSH2 0x868 DUP10 DUP3 DUP11 ADD PUSH2 0x764 JUMP JUMPDEST SWAP6 POP POP PUSH2 0x877 PUSH1 0x40 DUP9 ADD PUSH2 0x7F1 JUMP JUMPDEST SWAP4 POP PUSH2 0x885 PUSH1 0x60 DUP9 ADD PUSH2 0x7F1 JUMP JUMPDEST SWAP3 POP PUSH2 0x893 PUSH1 0x80 DUP9 ADD PUSH2 0x7F1 JUMP JUMPDEST SWAP2 POP PUSH2 0x8A1 PUSH1 0xA0 DUP9 ADD PUSH2 0x7F1 JUMP JUMPDEST SWAP1 POP SWAP3 SWAP6 POP SWAP3 SWAP6 POP SWAP3 SWAP6 JUMP JUMPDEST PUSH1 0x1 DUP2 DUP2 SHR SWAP1 DUP3 AND DUP1 PUSH2 0x8C1 JUMPI PUSH1 0x7F DUP3 AND SWAP2 POP JUMPDEST PUSH1 0x20 DUP3 LT DUP2 SUB PUSH2 0x8E1 JUMPI PUSH4 0x4E487B71 PUSH1 0xE0 SHL PUSH1 0x0 MSTORE PUSH1 0x22 PUSH1 0x4 MSTORE PUSH1 0x24 PUSH1 0x0 REVERT JUMPDEST POP SWAP2 SWAP1 POP JUMP JUMPDEST PUSH1 0x0 DUP4 MLOAD PUSH2 0x8F9 DUP2 DUP5 PUSH1 0x20 DUP9 ADD PUSH2 0x6AB JUMP JUMPDEST DUP4 MLOAD SWAP1 DUP4 ADD SWAP1 PUSH2 0x90D DUP2 DUP4 PUSH1 0x20 DUP9 ADD PUSH2 0x6AB JUMP JUMPDEST ADD SWAP5 SWAP4 POP POP POP POP JUMP JUMPDEST PUSH1 0x0 DUP5 MLOAD PUSH2 0x928 DUP2 DUP5 PUSH1 0x20 DUP10 ADD PUSH2 0x6AB JUMP JUMPDEST DUP5 MLOAD SWAP1 DUP4 ADD SWAP1 PUSH2 0x93C DUP2 DUP4 PUSH1 0x20 DUP10 ADD PUSH2 0x6AB JUMP JUMPDEST ADD SWAP3 DUP4 MSTORE POP POP PUSH1 0x20 ADD SWAP3 SWAP2 POP POP JUMP JUMPDEST PUSH1 0x0 PUSH2 0x120 DUP1 DUP4 MSTORE PUSH2 0x95F DUP2 DUP5 ADD DUP13 PUSH2 0x6CF JUMP JUMPDEST SWAP1 POP DUP3 DUP2 SUB PUSH1 0x20 DUP5 ADD MSTORE PUSH2 0x973 DUP2 DUP12 PUSH2 0x6CF JUMP JUMPDEST DUP4 DUP2 SUB PUSH1 0x40 DUP1 DUP7 ADD SWAP2 SWAP1 SWAP2 MSTORE PUSH1 0x3 DUP3 MSTORE PUSH3 0x109493 PUSH1 0xEA SHL PUSH1 0x20 DUP4 ADD MSTORE PUSH1 0xFF SWAP11 SWAP1 SWAP11 AND PUSH1 0x60 DUP6 ADD MSTORE PUSH1 0x1 PUSH1 0x1 PUSH1 0xA0 SHL SUB SWAP9 DUP10 AND PUSH1 0x80 DUP6 ADD MSTORE SWAP7 DUP9 AND PUSH1 0xA0 DUP5 ADD MSTORE POP POP SWAP3 DUP6 AND PUSH1 0xC0 DUP5 ADD MSTORE SWAP1 DUP5 AND PUSH1 0xE0 DUP4 ADD MSTORE SWAP1 SWAP3 AND PUSH2 0x100 SWAP1 SWAP3 ADD SWAP2 SWAP1 SWAP2 MSTORE ADD SWAP3 SWAP2 POP POP JUMP JUMPDEST PUSH1 0x1F DUP3 GT ISZERO PUSH2 0xA22 JUMPI PUSH1 0x0 DUP2 DUP2 MSTORE PUSH1 0x20 DUP2 KECCAK256 PUSH1 0x1F DUP6 ADD PUSH1 0x5 SHR DUP2 ADD PUSH1 0x20 DUP7 LT ISZERO PUSH2 0x9FF JUMPI POP DUP1 JUMPDEST PUSH1 0x1F DUP6 ADD PUSH1 0x5 SHR DUP3 ADD SWAP2 POP JUMPDEST DUP2 DUP2 LT ISZERO PUSH2 0xA1E JUMPI DUP3 DUP2 SSTORE PUSH1 0x1 ADD PUSH2 0xA0B JUMP JUMPDEST POP POP POP JUMPDEST POP POP POP JUMP JUMPDEST DUP2 MLOAD PUSH8 0xFFFFFFFFFFFFFFFF DUP2 GT ISZERO PUSH2 0xA41 JUMPI PUSH2 0xA41 PUSH2 0x74E JUMP JUMPDEST PUSH2 0xA55 DUP2 PUSH2 0xA4F DUP5 SLOAD PUSH2 0x8AD JUMP JUMPDEST DUP5 PUSH2 0x9D8 JUMP JUMPDEST PUSH1 0x20 DUP1 PUSH1 0x1F DUP4 GT PUSH1 0x1 DUP2 EQ PUSH2 0xA8A JUMPI PUSH1 0x0 DUP5 ISZERO PUSH2 0xA72 JUMPI POP DUP6 DUP4 ADD MLOAD JUMPDEST PUSH1 0x0 NOT PUSH1 0x3 DUP7 SWAP1 SHL SHR NOT AND PUSH1 0x1 DUP6 SWAP1 SHL OR DUP6 SSTORE PUSH2 0xA1E JUMP JUMPDEST PUSH1 0x0 DUP6 DUP2 MSTORE PUSH1 0x20 DUP2 KECCAK256 PUSH1 0x1F NOT DUP7 AND SWAP2 JUMPDEST DUP3 DUP2 LT ISZERO PUSH2 0xAB9 JUMPI DUP9 DUP7 ADD MLOAD DUP3 SSTORE SWAP5 DUP5 ADD SWAP5 PUSH1 0x1 SWAP1 SWAP2 ADD SWAP1 DUP5 ADD PUSH2 0xA9A JUMP JUMPDEST POP DUP6 DUP3 LT ISZERO PUSH2 0xAD7 JUMPI DUP8 DUP6 ADD MLOAD PUSH1 0x0 NOT PUSH1 0x3 DUP9 SWAP1 SHL PUSH1 0xF8 AND SHR NOT AND DUP2 SSTORE JUMPDEST POP POP POP POP POP PUSH1 0x1 SWAP1 DUP2 SHL ADD SWAP1 SSTORE POP JUMP JUMPDEST PUSH1 0x40 DUP2 MSTORE PUSH1 0x0 PUSH2 0xAFA PUSH1 0x40 DUP4 ADD DUP6 PUSH2 0x6CF JUMP JUMPDEST DUP3 DUP2 SUB PUSH1 0x20 DUP5 ADD MSTORE PUSH2 0xB0C DUP2 DUP6 PUSH2 0x6CF JUMP JUMPDEST SWAP6 SWAP5 POP POP POP POP POP JUMP INVALID PUSH1 0x80 PUSH1 0x40 MSTORE CALLVALUE DUP1 ISZERO PUSH2 0x10 JUMPI PUSH1 0x0 DUP1 REVERT JUMPDEST POP PUSH1 0x40 MLOAD PUSH2 0x273 CODESIZE SUB DUP1 PUSH2 0x273 DUP4 CODECOPY DUP2 ADD PUSH1 0x40 DUP2 SWAP1 MSTORE PUSH2 0x2F SWAP2 PUSH2 0x5D JUMP JUMPDEST PUSH1 0x0 DUP1 SLOAD PUSH1 0x1 PUSH1 0x1 PUSH1 0xA0 SHL SUB SWAP1 SWAP3 AND PUSH1 0x1 PUSH1 0x1 PUSH1 0xA0 SHL SUB NOT SWAP3 DUP4 AND OR SWAP1 SSTORE PUSH1 0x1 DUP1 SLOAD SWAP1 SWAP2 AND CALLER OR SWAP1 SSTORE PUSH2 0x8D JUMP JUMPDEST PUSH1 0x0 PUSH1 0x20 DUP3 DUP5 SUB SLT ISZERO PUSH2 0x6F JUMPI PUSH1 0x0 DUP1 REVERT JUMPDEST DUP2 MLOAD PUSH1 0x1 PUSH1 0x1 PUSH1 0xA0 SHL SUB DUP2 AND DUP2 EQ PUSH2 0x86 JUMPI PUSH1 0x0 DUP1 REVERT JUMPDEST SWAP4 SWAP3 POP POP POP JUMP JUMPDEST PUSH2 0x1D7 DUP1 PUSH2 0x9C PUSH1 0x0 CODECOPY PUSH1 0x0 RETURN INVALID PUSH1 0x80 PUSH1 0x40 MSTORE PUSH1 0x4 CALLDATASIZE LT PUSH2 0x38 JUMPI PUSH1 0x0 CALLDATALOAD PUSH1 0xE0 SHR DUP1 PUSH4 0x5C60DA1B EQ PUSH2 0x75 JUMPI DUP1 PUSH4 0x8F283970 EQ PUSH2 0xB1 JUMPI DUP1 PUSH4 0xF851A440 EQ PUSH2 0xD1 JUMPI PUSH2 0x3F JUMP JUMPDEST CALLDATASIZE PUSH2 0x3F JUMPI STOP JUMPDEST PUSH1 0x0 DUP1 SLOAD PUSH1 0x40 MLOAD PUSH1 0x1 PUSH1 0x1 PUSH1 0xA0 SHL SUB SWAP1 SWAP2 AND SWAP2 CALLDATASIZE SWAP1 DUP3 CALLDATACOPY PUSH1 0x0 DUP1 CALLDATASIZE DUP4 DUP6 GAS DELEGATECALL RETURNDATASIZE DUP1 PUSH1 0x0 DUP5 RETURNDATACOPY DUP2 DUP1 ISZERO PUSH2 0x6F JUMPI DUP2 DUP5 RETURN JUMPDEST DUP2 DUP5 REVERT JUMPDEST STOP JUMPDEST CALLVALUE DUP1 ISZERO PUSH2 0x81 JUMPI PUSH1 0x0 DUP1 REVERT JUMPDEST POP PUSH1 0x0 SLOAD PUSH2 0x95 SWAP1 PUSH1 0x1 PUSH1 0x1 PUSH1 0xA0 SHL SUB AND DUP2 JUMP JUMPDEST PUSH1 0x40 MLOAD PUSH1 0x1 PUSH1 0x1 PUSH1 0xA0 SHL SUB SWAP1 SWAP2 AND DUP2 MSTORE PUSH1 0x20 ADD PUSH1 0x40 MLOAD DUP1 SWAP2 SUB SWAP1 RETURN JUMPDEST CALLVALUE DUP1 ISZERO PUSH2 0xBD JUMPI PUSH1 0x0 DUP1 REVERT JUMPDEST POP PUSH2 0x73 PUSH2 0xCC CALLDATASIZE PUSH1 0x4 PUSH2 0x171 JUMP JUMPDEST PUSH2 0xF1 JUMP JUMPDEST CALLVALUE DUP1 ISZERO PUSH2 0xDD JUMPI PUSH1 0x0 DUP1 REVERT JUMPDEST POP PUSH1 0x1 SLOAD PUSH2 0x95 SWAP1 PUSH1 0x1 PUSH1 0x1 PUSH1 0xA0 SHL SUB AND DUP2 JUMP JUMPDEST PUSH1 0x1 SLOAD PUSH1 0x1 PUSH1 0x1 PUSH1 0xA0 SHL SUB AND CALLER EQ PUSH2 0x14F JUMPI PUSH1 0x40 MLOAD PUSH3 0x461BCD PUSH1 0xE5 SHL DUP2 MSTORE PUSH1 0x20 PUSH1 0x4 DUP3 ADD MSTORE PUSH1 0x1B PUSH1 0x24 DUP3 ADD MSTORE PUSH32 0x4F6E6C792061646D696E2063616E206368616E67652061646D696E0000000000 PUSH1 0x44 DUP3 ADD MSTORE PUSH1 0x64 ADD PUSH1 0x40 MLOAD DUP1 SWAP2 SUB SWAP1 REVERT JUMPDEST PUSH1 0x1 DUP1 SLOAD PUSH1 0x1 PUSH1 0x1 PUSH1 0xA0 SHL SUB NOT AND PUSH1 0x1 PUSH1 0x1 PUSH1 0xA0 SHL SUB SWAP3 SWAP1 SWAP3 AND SWAP2 SWAP1 SWAP2 OR SWAP1 SSTORE JUMP JUMPDEST PUSH1 0x0 PUSH1 0x20 DUP3 DUP5 SUB SLT ISZERO PUSH2 0x183 JUMPI PUSH1 0x0 DUP1 REVERT JUMPDEST DUP2 CALLDATALOAD PUSH1 0x1 PUSH1 0x1 PUSH1 0xA0 SHL SUB DUP2 AND DUP2 EQ PUSH2 0x19A JUMPI PUSH1 0x0 DUP1 REVERT JUMPDEST SWAP4 SWAP3 POP POP POP JUMP INVALID LOG2 PUSH5 0x6970667358 0x22 SLT KECCAK256 GASPRICE 0xC1 0xEE SELFBALANCE 0xC6 0xB2 0xC5 0xB4 0xF 0xAA 0xB9 LOG3 PUSH4 0xE46DBBB6 0x26 0x4A SLOAD 0xF 0xC8 0xC9 STATICCALL 0xF7 0xC8 DUP11 0xB7 SIGNEXTEND PUSH22 0xA35B64736F6C63430008130033A26469706673582212 KECCAK256 EQ PUSH9 0x4FEE707A04D5FF60C5 KECCAK256 SWAP14 EXP PUSH24 0x5EB337074B959C1A166D04D4634089060564736F6C634300 ADDMOD SGT STOP CALLER "},"methodIdentifiers":{"bankOracle()":"e8964535","deployToken(string,string,address,address,address,address)":"8efca370","deployments(uint256)":"06609bbe","proxyAdmin()":"3e47158c","tokenTemplate()":"0814d3dd"}}}}}