{
  "_format": "hh-sol-artifact-1",
  "contractName": "BankOracle",
  "sourceName": "contracts/BankOracle.sol",
  "abi": [
    {
      "inputs": [],
      "stateMutability": "nonpayable",
      "type": "constructor"
    },
    {
      "anonymous": false,
      "inputs": [
        {
          "indexed": true,
          "internalType": "address",
          "name": "token",
          "type": "address"
        },
        {
          "indexed": false,
          "internalType": "string",
          "name": "pluggyAccountId",
          "type": "string"
        }
      ],
      "name": "AccountLinked",
      "type": "event"
    },
    {
      "anonymous": false,
      "inputs": [
        {
          "indexed": true,
          "internalType": "address",
          "name": "token",
          "type": "address"
        },
        {
          "indexed": false,
          "internalType": "uint256",
          "name": "oldBalance",
          "type": "uint256"
        },
        {
          "indexed": false,
          "internalType": "uint256",
          "name": "newBalance",
          "type": "uint256"
        },
        {
          "indexed": false,
          "internalType": "uint256",
          "name": "timestamp",
          "type": "uint256"
        }
      ],
      "name": "BalanceUpdated",
      "type": "event"
    },
    {
      "anonymous": false,
      "inputs": [
        {
          "indexed": true,
          "internalType": "address",
          "name": "previousOwner",
          "type": "address"
        },
        {
          "indexed": true,
          "internalType": "address",
          "name": "newOwner",
          "type": "address"
        }
      ],
      "name": "OwnershipTransferred",
      "type": "event"
    },
    {
      "inputs": [
        {
          "internalType": "address",
          "name": "updater",
          "type": "address"
        },
        {
          "internalType": "bool",
          "name": "authorized",
          "type": "bool"
        }
      ],
      "name": "authorizeUpdater",
      "outputs": [],
      "stateMutability": "nonpayable",
      "type": "function"
    },
    {
      "inputs": [
        {
          "internalType": "address",
          "name": "",
          "type": "address"
        }
      ],
      "name": "authorizedUpdaters",
      "outputs": [
        {
          "internalType": "bool",
          "name": "",
          "type": "bool"
        }
      ],
      "stateMutability": "view",
      "type": "function"
    },
    {
      "inputs": [
        {
          "internalType": "address",
          "name": "token",
          "type": "address"
        }
      ],
      "name": "getBalance",
      "outputs": [
        {
          "internalType": "uint256",
          "name": "",
          "type": "uint256"
        }
      ],
      "stateMutability": "view",
      "type": "function"
    },
    {
      "inputs": [
        {
          "internalType": "address",
          "name": "token",
          "type": "address"
        },
        {
          "internalType": "string",
          "name": "accountId",
          "type": "string"
        }
      ],
      "name": "linkAccount",
      "outputs": [],
      "stateMutability": "nonpayable",
      "type": "function"
    },
    {
      "inputs": [],
      "name": "owner",
      "outputs": [
        {
          "internalType": "address",
          "name": "",
          "type": "address"
        }
      ],
      "stateMutability": "view",
      "type": "function"
    },
    {
      "inputs": [],
      "name": "renounceOwnership",
      "outputs": [],
      "stateMutability": "nonpayable",
      "type": "function"
    },
    {
      "inputs": [
        {
          "internalType": "address",
          "name": "",
          "type": "address"
        }
      ],
      "name": "tokenToAccount",
      "outputs": [
        {
          "internalType": "string",
          "name": "pluggyAccountId",
          "type": "string"
        },
        {
          "internalType": "uint256",
          "name": "balanceBRL",
          "type": "uint256"
        },
        {
          "internalType": "uint256",
          "name": "lastUpdated",
          "type": "uint256"
        },
        {
          "internalType": "bool",
          "name": "active",
          "type": "bool"
        }
      ],
      "stateMutability": "view",
      "type": "function"
    },
    {
      "inputs": [
        {
          "internalType": "address",
          "name": "newOwner",
          "type": "address"
        }
      ],
      "name": "transferOwnership",
      "outputs": [],
      "stateMutability": "nonpayable",
      "type": "function"
    },
    {
      "inputs": [
        {
          "internalType": "address",
          "name": "token",
          "type": "address"
        },
        {
          "internalType": "string",
          "name": "accountId",
          "type": "string"
        },
        {
          "internalType": "uint256",
          "name": "newBalanceBRL",
          "type": "uint256"
        }
      ],
      "name": "updateBalance",
      "outputs": [],
      "stateMutability": "nonpayable",
      "type": "function"
    }
  ],
  "bytecode": "0x608060405234801561001057600080fd5b5061001a33610039565b336000908152600260205260409020805460ff19166001179055610089565b600080546001600160a01b038381166001600160a01b0319831681178455604051919092169283917f8be0079c531659141344cd1fd0a4f28419497f9722a3daafe3b4186f6b6457e09190a35050565b61096c806100986000396000f3fe608060405234801561001057600080fd5b50600436106100935760003560e01c80638da5cb5b116100665780638da5cb5b146100f45780638ff29cfe1461010f578063f2fde38b14610142578063f8b2cb4f14610155578063fd57f7ca1461019057600080fd5b80632fd8661f1461009857806365f5bc44146100ad578063715018a6146100c0578063875a069f146100c8575b600080fd5b6100ab6100a63660046105bd565b6101a3565b005b6100ab6100bb36600461069c565b6101d6565b6100ab6102f2565b6100db6100d63660046106f3565b610306565b6040516100eb949392919061075b565b60405180910390f35b6000546040516001600160a01b0390911681526020016100eb565b61013261011d3660046106f3565b60026020526000908152604090205460ff1681565b60405190151581526020016100eb565b6100ab6101503660046106f3565b6103bb565b6101826101633660046106f3565b6001600160a01b03166000908152600160208190526040909120015490565b6040519081526020016100eb565b6100ab61019e36600461078c565b610434565b6101ab6104f7565b6001600160a01b03919091166000908152600260205260409020805460ff1916911515919091179055565b3360009081526002602052604090205460ff1661022b5760405162461bcd60e51b815260206004820152600e60248201526d139bdd08185d5d1a1bdc9a5e995960921b60448201526064015b60405180910390fd5b6001600160a01b0383166000908152600160205260409020600381015460ff1661028c5760405162461bcd60e51b81526020600482015260126024820152714163636f756e74206e6f742061637469766560701b6044820152606401610222565b6001810180549083905542600283018190556040805183815260208101869052908101919091526001600160a01b038616907fd8b455e949c1d522b95778231eec1beff214f4fbe062f64b18a86272caaa1fc79060600160405180910390a25050505050565b6102fa6104f7565b6103046000610551565b565b600160205260009081526040902080548190610321906107da565b80601f016020809104026020016040519081016040528092919081815260200182805461034d906107da565b801561039a5780601f1061036f5761010080835404028352916020019161039a565b820191906000526020600020905b81548152906001019060200180831161037d57829003601f168201915b50505050600183015460028401546003909401549293909290915060ff1684565b6103c36104f7565b6001600160a01b0381166104285760405162461bcd60e51b815260206004820152602660248201527f4f776e61626c653a206e6577206f776e657220697320746865207a65726f206160448201526564647265737360d01b6064820152608401610222565b61043181610551565b50565b61043c6104f7565b60408051608081018252828152600060208083018290528284018290526001606084018190526001600160a01b0387168352905291909120815181906104829082610863565b506020820151600182015560408083015160028301556060909201516003909101805460ff1916911515919091179055516001600160a01b038316907f74012d7bf32d144e6f82485962ee534caa2679daa5f63a3b2956692400796714906104eb908490610923565b60405180910390a25050565b6000546001600160a01b031633146103045760405162461bcd60e51b815260206004820181905260248201527f4f776e61626c653a2063616c6c6572206973206e6f7420746865206f776e65726044820152606401610222565b600080546001600160a01b038381166001600160a01b0319831681178455604051919092169283917f8be0079c531659141344cd1fd0a4f28419497f9722a3daafe3b4186f6b6457e09190a35050565b80356001600160a01b03811681146105b857600080fd5b919050565b600080604083850312156105d057600080fd5b6105d9836105a1565b9150602083013580151581146105ee57600080fd5b809150509250929050565b634e487b7160e01b600052604160045260246000fd5b600082601f83011261062057600080fd5b813567ffffffffffffffff8082111561063b5761063b6105f9565b604051601f8301601f19908116603f01168101908282118183101715610663576106636105f9565b8160405283815286602085880101111561067c57600080fd5b836020870160208301376000602085830101528094505050505092915050565b6000806000606084860312156106b157600080fd5b6106ba846105a1565b9250602084013567ffffffffffffffff8111156106d657600080fd5b6106e28682870161060f565b925050604084013590509250925092565b60006020828403121561070557600080fd5b61070e826105a1565b9392505050565b6000815180845260005b8181101561073b5760208185018101518683018201520161071f565b506000602082860101526020601f19601f83011685010191505092915050565b60808152600061076e6080830187610715565b60208301959095525060408101929092521515606090910152919050565b6000806040838503121561079f57600080fd5b6107a8836105a1565b9150602083013567ffffffffffffffff8111156107c457600080fd5b6107d08582860161060f565b9150509250929050565b600181811c908216806107ee57607f821691505b60208210810361080e57634e487b7160e01b600052602260045260246000fd5b50919050565b601f82111561085e57600081815260208120601f850160051c8101602086101561083b5750805b601f850160051c820191505b8181101561085a57828155600101610847565b5050505b505050565b815167ffffffffffffffff81111561087d5761087d6105f9565b6108918161088b84546107da565b84610814565b602080601f8311600181146108c657600084156108ae5750858301515b600019600386901b1c1916600185901b17855561085a565b600085815260208120601f198616915b828110156108f5578886015182559484019460019091019084016108d6565b50858210156109135787850151600019600388901b60f8161c191681555b5050505050600190811b01905550565b60208152600061070e602083018461071556fea26469706673582212205dce28c04c1df7c52ed257019b8e4d6981942ae02dfda8e60e72196af688b96a64736f6c63430008130033",
  "linkReferences": {},
  "deployedLinkReferences": {}
}