{
  "_format": "hh-sol-artifact-1",
  "contractName": "BankBackedToken",
  "sourceName": "contracts/BankBackedToken.sol",
  "abi": [
    {
      "inputs": [
        {
          "internalType": "string",
          "name": "tokenName",
          "type": "string"
        },
        {
          "internalType": "string",
          "name": "tokenSymbol",
          "type": "string"
        },
        {
          "internalType": "string",
          "name": "tokenCurrency",
          "type": "string"
        },
        {
          "internalType": "uint8",
          "name": "tokenDecimals",
          "type": "uint8"
        },
        {
          "internalType": "address",
          "name": "newMasterMinter",
          "type": "address"
        },
        {
          "internalType": "address",
          "name": "newPauser",
          "type": "address"
        },
        {
          "internalType": "address",
          "name": "newBlacklister",
          "type": "address"
        },
        {
          "internalType": "address",
          "name": "newOwner",
          "type": "address"
        },
        {
          "internalType": "address",
          "name": "_bankOracle",
          "type": "address"
        }
      ],
      "stateMutability": "nonpayable",
      "type": "constructor"
    },
    {
      "anonymous": false,
      "inputs": [
        {
          "indexed": true,
          "internalType": "address",
          "name": "owner",
          "type": "address"
        },
        {
          "indexed": true,
          "internalType": "address",
          "name": "spender",
          "type": "address"
        },
        {
          "indexed": false,
          "internalType": "uint256",
          "name": "value",
          "type": "uint256"
        }
      ],
      "name": "Approval",
      "type": "event"
    },
    {
      "anonymous": false,
      "inputs": [
        {
          "indexed": true,
          "internalType": "address",
          "name": "account",
          "type": "address"
        }
      ],
      "name": "Blacklisted",
      "type": "event"
    },
    {
      "anonymous": false,
      "inputs": [
        {
          "indexed": true,
          "internalType": "address",
          "name": "newBlacklister",
          "type": "address"
        }
      ],
      "name": "BlacklisterChanged",
      "type": "event"
    },
    {
      "anonymous": false,
      "inputs": [
        {
          "indexed": true,
          "internalType": "address",
          "name": "burner",
          "type": "address"
        },
        {
          "indexed": false,
          "internalType": "uint256",
          "name": "amount",
          "type": "uint256"
        }
      ],
      "name": "Burn",
      "type": "event"
    },
    {
      "anonymous": false,
      "inputs": [
        {
          "indexed": true,
          "internalType": "address",
          "name": "newMasterMinter",
          "type": "address"
        }
      ],
      "name": "MasterMinterChanged",
      "type": "event"
    },
    {
      "anonymous": false,
      "inputs": [
        {
          "indexed": true,
          "internalType": "address",
          "name": "minter",
          "type": "address"
        },
        {
          "indexed": true,
          "internalType": "address",
          "name": "to",
          "type": "address"
        },
        {
          "indexed": false,
          "internalType": "uint256",
          "name": "amount",
          "type": "uint256"
        }
      ],
      "name": "Mint",
      "type": "event"
    },
    {
      "anonymous": false,
      "inputs": [
        {
          "indexed": true,
          "internalType": "address",
          "name": "minter",
          "type": "address"
        },
        {
          "indexed": false,
          "internalType": "uint256",
          "name": "minterAllowedAmount",
          "type": "uint256"
        }
      ],
      "name": "MinterConfigured",
      "type": "event"
    },
    {
      "anonymous": false,
      "inputs": [
        {
          "indexed": true,
          "internalType": "address",
          "name": "oldMinter",
          "type": "address"
        }
      ],
      "name": "MinterRemoved",
      "type": "event"
    },
    {
      "anonymous": false,
      "inputs": [
        {
          "indexed": true,
          "internalType": "address",
          "name": "previousOwner",
          "type": "address"
        },
        {
          "indexed": true,
          "internalType": "address",
          "name": "newOwner",
          "type": "address"
        }
      ],
      "name": "OwnershipTransferred",
      "type": "event"
    },
    {
      "anonymous": false,
      "inputs": [
        {
          "indexed": false,
          "internalType": "address",
          "name": "account",
          "type": "address"
        }
      ],
      "name": "Paused",
      "type": "event"
    },
    {
      "anonymous": false,
      "inputs": [
        {
          "indexed": true,
          "internalType": "address",
          "name": "newPauser",
          "type": "address"
        }
      ],
      "name": "PauserChanged",
      "type": "event"
    },
    {
      "anonymous": false,
      "inputs": [
        {
          "indexed": true,
          "internalType": "address",
          "name": "from",
          "type": "address"
        },
        {
          "indexed": true,
          "internalType": "address",
          "name": "to",
          "type": "address"
        },
        {
          "indexed": false,
          "internalType": "uint256",
          "name": "value",
          "type": "uint256"
        }
      ],
      "name": "Transfer",
      "type": "event"
    },
    {
      "anonymous": false,
      "inputs": [
        {
          "indexed": true,
          "internalType": "address",
          "name": "account",
          "type": "address"
        }
      ],
      "name": "UnBlacklisted",
      "type": "event"
    },
    {
      "anonymous": false,
      "inputs": [
        {
          "indexed": false,
          "internalType": "address",
          "name": "account",
          "type": "address"
        }
      ],
      "name": "Unpaused",
      "type": "event"
    },
    {
      "inputs": [
        {
          "internalType": "address",
          "name": "owner",
          "type": "address"
        },
        {
          "internalType": "address",
          "name": "spender",
          "type": "address"
        }
      ],
      "name": "allowance",
      "outputs": [
        {
          "internalType": "uint256",
          "name": "",
          "type": "uint256"
        }
      ],
      "stateMutability": "view",
      "type": "function"
    },
    {
      "inputs": [
        {
          "internalType": "address",
          "name": "spender",
          "type": "address"
        },
        {
          "internalType": "uint256",
          "name": "amount",
          "type": "uint256"
        }
      ],
      "name": "approve",
      "outputs": [
        {
          "internalType": "bool",
          "name": "",
          "type": "bool"
        }
      ],
      "stateMutability": "nonpayable",
      "type": "function"
    },
    {
      "inputs": [
        {
          "internalType": "address",
          "name": "account",
          "type": "address"
        }
      ],
      "name": "balanceOf",
      "outputs": [
        {
          "internalType": "uint256",
          "name": "",
          "type": "uint256"
        }
      ],
      "stateMutability": "view",
      "type": "function"
    },
    {
      "inputs": [],
      "name": "bankOracle",
      "outputs": [
        {
          "internalType": "address",
          "name": "",
          "type": "address"
        }
      ],
      "stateMutability": "view",
      "type": "function"
    },
    {
      "inputs": [
        {
          "internalType": "address",
          "name": "account",
          "type": "address"
        }
      ],
      "name": "blacklist",
      "outputs": [],
      "stateMutability": "nonpayable",
      "type": "function"
    },
    {
      "inputs": [
        {
          "internalType": "address",
          "name": "",
          "type": "address"
        }
      ],
      "name": "blacklisted",
      "outputs": [
        {
          "internalType": "bool",
          "name": "",
          "type": "bool"
        }
      ],
      "stateMutability": "view",
      "type": "function"
    },
    {
      "inputs": [],
      "name": "blacklister",
      "outputs": [
        {
          "internalType": "address",
          "name": "",
          "type": "address"
        }
      ],
      "stateMutability": "view",
      "type": "function"
    },
    {
      "inputs": [
        {
          "internalType": "uint256",
          "name": "_amount",
          "type": "uint256"
        }
      ],
      "name": "burn",
      "outputs": [],
      "stateMutability": "nonpayable",
      "type": "function"
    },
    {
      "inputs": [
        {
          "internalType": "address",
          "name": "minter",
          "type": "address"
        },
        {
          "internalType": "uint256",
          "name": "minterAllowedAmount",
          "type": "uint256"
        }
      ],
      "name": "configureMinter",
      "outputs": [
        {
          "internalType": "bool",
          "name": "",
          "type": "bool"
        }
      ],
      "stateMutability": "nonpayable",
      "type": "function"
    },
    {
      "inputs": [],
      "name": "currency",
      "outputs": [
        {
          "internalType": "string",
          "name": "",
          "type": "string"
        }
      ],
      "stateMutability": "view",
      "type": "function"
    },
    {
      "inputs": [],
      "name": "decimals",
      "outputs": [
        {
          "internalType": "uint8",
          "name": "",
          "type": "uint8"
        }
      ],
      "stateMutability": "view",
      "type": "function"
    },
    {
      "inputs": [
        {
          "internalType": "address",
          "name": "spender",
          "type": "address"
        },
        {
          "internalType": "uint256",
          "name": "subtractedValue",
          "type": "uint256"
        }
      ],
      "name": "decreaseAllowance",
      "outputs": [
        {
          "internalType": "bool",
          "name": "",
          "type": "bool"
        }
      ],
      "stateMutability": "nonpayable",
      "type": "function"
    },
    {
      "inputs": [
        {
          "internalType": "address",
          "name": "spender",
          "type": "address"
        },
        {
          "internalType": "uint256",
          "name": "addedValue",
          "type": "uint256"
        }
      ],
      "name": "increaseAllowance",
      "outputs": [
        {
          "internalType": "bool",
          "name": "",
          "type": "bool"
        }
      ],
      "stateMutability": "nonpayable",
      "type": "function"
    },
    {
      "inputs": [],
      "name": "masterMinter",
      "outputs": [
        {
          "internalType": "address",
          "name": "",
          "type": "address"
        }
      ],
      "stateMutability": "view",
      "type": "function"
    },
    {
      "inputs": [
        {
          "internalType": "address",
          "name": "_to",
          "type": "address"
        },
        {
          "internalType": "uint256",
          "name": "_amount",
          "type": "uint256"
        }
      ],
      "name": "mint",
      "outputs": [
        {
          "internalType": "bool",
          "name": "",
          "type": "bool"
        }
      ],
      "stateMutability": "nonpayable",
      "type": "function"
    },
    {
      "inputs": [
        {
          "internalType": "address",
          "name": "",
          "type": "address"
        }
      ],
      "name": "minterAllowance",
      "outputs": [
        {
          "internalType": "uint256",
          "name": "",
          "type": "uint256"
        }
      ],
      "stateMutability": "view",
      "type": "function"
    },
    {
      "inputs": [
        {
          "internalType": "address",
          "name": "",
          "type": "address"
        }
      ],
      "name": "minters",
      "outputs": [
        {
          "internalType": "bool",
          "name": "",
          "type": "bool"
        }
      ],
      "stateMutability": "view",
      "type": "function"
    },
    {
      "inputs": [],
      "name": "name",
      "outputs": [
        {
          "internalType": "string",
          "name": "",
          "type": "string"
        }
      ],
      "stateMutability": "view",
      "type": "function"
    },
    {
      "inputs": [],
      "name": "owner",
      "outputs": [
        {
          "internalType": "address",
          "name": "",
          "type": "address"
        }
      ],
      "stateMutability": "view",
      "type": "function"
    },
    {
      "inputs": [],
      "name": "pause",
      "outputs": [],
      "stateMutability": "nonpayable",
      "type": "function"
    },
    {
      "inputs": [],
      "name": "paused",
      "outputs": [
        {
          "internalType": "bool",
          "name": "",
          "type": "bool"
        }
      ],
      "stateMutability": "view",
      "type": "function"
    },
    {
      "inputs": [],
      "name": "pauser",
      "outputs": [
        {
          "internalType": "address",
          "name": "",
          "type": "address"
        }
      ],
      "stateMutability": "view",
      "type": "function"
    },
    {
      "inputs": [
        {
          "internalType": "address",
          "name": "minter",
          "type": "address"
        }
      ],
      "name": "removeMinter",
      "outputs": [
        {
          "internalType": "bool",
          "name": "",
          "type": "bool"
        }
      ],
      "stateMutability": "nonpayable",
      "type": "function"
    },
    {
      "inputs": [],
      "name": "renounceOwnership",
      "outputs": [],
      "stateMutability": "nonpayable",
      "type": "function"
    },
    {
      "inputs": [],
      "name": "symbol",
      "outputs": [
        {
          "internalType": "string",
          "name": "",
          "type": "string"
        }
      ],
      "stateMutability": "view",
      "type": "function"
    },
    {
      "inputs": [],
      "name": "totalSupply",
      "outputs": [
        {
          "internalType": "uint256",
          "name": "",
          "type": "uint256"
        }
      ],
      "stateMutability": "view",
      "type": "function"
    },
    {
      "inputs": [
        {
          "internalType": "address",
          "name": "recipient",
          "type": "address"
        },
        {
          "internalType": "uint256",
          "name": "amount",
          "type": "uint256"
        }
      ],
      "name": "transfer",
      "outputs": [
        {
          "internalType": "bool",
          "name": "",
          "type": "bool"
        }
      ],
      "stateMutability": "nonpayable",
      "type": "function"
    },
    {
      "inputs": [
        {
          "internalType": "address",
          "name": "sender",
          "type": "address"
        },
        {
          "internalType": "address",
          "name": "recipient",
          "type": "address"
        },
        {
          "internalType": "uint256",
          "name": "amount",
          "type": "uint256"
        }
      ],
      "name": "transferFrom",
      "outputs": [
        {
          "internalType": "bool",
          "name": "",
          "type": "bool"
        }
      ],
      "stateMutability": "nonpayable",
      "type": "function"
    },
    {
      "inputs": [
        {
          "internalType": "address",
          "name": "newOwner",
          "type": "address"
        }
      ],
      "name": "transferOwnership",
      "outputs": [],
      "stateMutability": "nonpayable",
      "type": "function"
    },
    {
      "inputs": [
        {
          "internalType": "address",
          "name": "account",
          "type": "address"
        }
      ],
      "name": "unBlacklist",
      "outputs": [],
      "stateMutability": "nonpayable",
      "type": "function"
    },
    {
      "inputs": [],
      "name": "unpause",
      "outputs": [],
      "stateMutability": "nonpayable",
      "type": "function"
    }
  ],
  "bytecode": "0x60806040523480156200001157600080fd5b5060405162001eb538038062001eb583398101604081905262000034916200034a565b8888888883836003620000488382620004db565b506004620000578282620004db565b505050620000746200006e6200012260201b60201c565b62000126565b6005805460ff60a01b1916905560066200008f8582620004db565b5060076200009e8482620004db565b506009620000ad8382620004db565b506008805460ff191660ff9290921691909117905550620000d2915086905062000178565b620000dd84620001c2565b620000e8836200020c565b620000f38262000126565b601080546001600160a01b0319166001600160a01b039290921691909117905550620005a79650505050505050565b3390565b600580546001600160a01b038381166001600160a01b0319831681179093556040519116919082907f8be0079c531659141344cd1fd0a4f28419497f9722a3daafe3b4186f6b6457e090600090a35050565b600a80546001600160a01b0319166001600160a01b0383169081179091556040517fdb66dfa9c6b8f5226fe9aac7e51897ae8ee94ac31dc70bb6c9900b2574b707e690600090a250565b600b80546001600160a01b0319166001600160a01b0383169081179091556040517fb80482a293ca2e013eda8683c9bd7fc8347cfdaeea5ede58cba46df502c2a60490600090a250565b600c80546001600160a01b0319166001600160a01b0383169081179091556040517fc67398012c111ce95ecb7429b933096c977380ee6c421175a71a4a4c6c88c06e90600090a250565b634e487b7160e01b600052604160045260246000fd5b600082601f8301126200027e57600080fd5b81516001600160401b03808211156200029b576200029b62000256565b604051601f8301601f19908116603f01168101908282118183101715620002c657620002c662000256565b81604052838152602092508683858801011115620002e357600080fd5b600091505b83821015620003075785820183015181830184015290820190620002e8565b600093810190920192909252949350505050565b805160ff811681146200032d57600080fd5b919050565b80516001600160a01b03811681146200032d57600080fd5b60008060008060008060008060006101208a8c0312156200036a57600080fd5b89516001600160401b03808211156200038257600080fd5b620003908d838e016200026c565b9a5060208c0151915080821115620003a757600080fd5b620003b58d838e016200026c565b995060408c0151915080821115620003cc57600080fd5b50620003db8c828d016200026c565b975050620003ec60608b016200031b565b9550620003fc60808b0162000332565b94506200040c60a08b0162000332565b93506200041c60c08b0162000332565b92506200042c60e08b0162000332565b91506200043d6101008b0162000332565b90509295985092959850929598565b600181811c908216806200046157607f821691505b6020821081036200048257634e487b7160e01b600052602260045260246000fd5b50919050565b601f821115620004d657600081815260208120601f850160051c81016020861015620004b15750805b601f850160051c820191505b81811015620004d257828155600101620004bd565b5050505b505050565b81516001600160401b03811115620004f757620004f762000256565b6200050f816200050884546200044c565b8462000488565b602080601f8311600181146200054757600084156200052e5750858301515b600019600386901b1c1916600185901b178555620004d2565b600085815260208120601f198616915b82811015620005785788860151825594840194600190910190840162000557565b5085821015620005975787850151600019600388901b60f8161c191681555b5050505050600190811b01905550565b6118fe80620005b76000396000f3fe608060405234801561001057600080fd5b50600436106101e55760003560e01c8063715018a61161010f578063bd102430116100a2578063e896453511610071578063e89645351461041a578063f2fde38b1461042d578063f46eccc414610440578063f9f92be41461046357600080fd5b8063bd102430146103c9578063dbac26e9146103dc578063dd62ed3e146103ff578063e5a6b10f1461041257600080fd5b806395d89b41116100de57806395d89b41146103885780639fd0506d14610390578063a457c2d7146103a3578063a9059cbb146103b657600080fd5b8063715018a6146103475780638456cb591461034f5780638a6db9c3146103575780638da5cb5b1461037757600080fd5b806335d99f351161018757806342966c681161015657806342966c68146102e65780634e44d956146102f95780635c975abb1461030c57806370a082311461031e57600080fd5b806335d99f351461028d57806339509351146102b85780633f4ba83a146102cb57806340c10f19146102d357600080fd5b80631a895266116101c35780631a8952661461023d57806323b872dd146102525780633092afd514610265578063313ce5671461027857600080fd5b806306fdde03146101ea578063095ea7b31461020857806318160ddd1461022b575b600080fd5b6101f2610476565b6040516101ff91906115aa565b60405180910390f35b61021b61021636600461160f565b610508565b60405190151581526020016101ff565b6002545b6040519081526020016101ff565b61025061024b366004611639565b610522565b005b61021b61026036600461165b565b61059e565b61021b610273366004611639565b610633565b60085460405160ff90911681526020016101ff565b600a546102a0906001600160a01b031681565b6040516001600160a01b0390911681526020016101ff565b61021b6102c636600461160f565b6106bc565b6102506106de565b61021b6102e136600461160f565b610712565b6102506102f4366004611697565b610834565b61021b61030736600461160f565b610940565b600554600160a01b900460ff1661021b565b61022f61032c366004611639565b6001600160a01b031660009081526020819052604090205490565b6102506109d7565b6102506109e9565b61022f610365366004611639565b600e6020526000908152604090205481565b6005546001600160a01b03166102a0565b6101f2610a1b565b600b546102a0906001600160a01b031681565b61021b6103b136600461160f565b610a2a565b61021b6103c436600461160f565b610ab0565b600c546102a0906001600160a01b031681565b61021b6103ea366004611639565b600f6020526000908152604090205460ff1681565b61022f61040d3660046116b0565b610b2f565b6101f2610b5a565b6010546102a0906001600160a01b031681565b61025061043b366004611639565b610b69565b61021b61044e366004611639565b600d6020526000908152604090205460ff1681565b610250610471366004611639565b610be2565b606060068054610485906116e3565b80601f01602080910402602001604051908101604052809291908181526020018280546104b1906116e3565b80156104fe5780601f106104d3576101008083540402835291602001916104fe565b820191906000526020600020905b8154815290600101906020018083116104e157829003601f168201915b5050505050905090565b600033610516818585610c58565b60019150505b92915050565b600c546001600160a01b031633146105555760405162461bcd60e51b815260040161054c9061171d565b60405180910390fd5b6001600160a01b0381166000818152600f6020526040808220805460ff19169055517f117e3210bb9aa7d9baff172026820255c6f6c30ba8999d1c2fd88e2848137c4e9190a250565b60006105a8610d7d565b6001600160a01b0384166000908152600f6020526040902054849060ff16156105e35760405162461bcd60e51b815260040161054c90611765565b6001600160a01b0384166000908152600f6020526040902054849060ff161561061e5760405162461bcd60e51b815260040161054c90611765565b610629868686610dca565b9695505050505050565b600a546000906001600160a01b031633146106605760405162461bcd60e51b815260040161054c906117a6565b6001600160a01b0382166000818152600d60209081526040808320805460ff19169055600e909152808220829055517fe94479a9f7e1952cc78f2d6baab678adc1b772d936c6583def489e524cb666929190a25060015b919050565b6000336105168185856106cf8383610b2f565b6106d99190611805565b610c58565b600b546001600160a01b031633146107085760405162461bcd60e51b815260040161054c90611818565b610710610de3565b565b600061071c610d7d565b336000908152600d602052604090205460ff1661074b5760405162461bcd60e51b815260040161054c9061185b565b60105460405163f8b2cb4f60e01b815230600482015283916000916001600160a01b039091169063f8b2cb4f90602401602060405180830381865afa158015610798573d6000803e3d6000fd5b505050506040513d601f19601f820116820180604052508101906107bc919061189c565b905080826107c960025490565b6107d39190611805565b11156108215760405162461bcd60e51b815260206004820152601960248201527f496e73756666696369656e742062616e6b206261636b696e6700000000000000604482015260640161054c565b61082b8585610e38565b95945050505050565b61083c610d7d565b336000908152600d602052604090205460ff1661086b5760405162461bcd60e51b815260040161054c9061185b565b336000818152600f602052604090205460ff161561089b5760405162461bcd60e51b815260040161054c90611765565b600082116108fd5760405162461bcd60e51b815260206004820152602960248201527f46696174546f6b656e3a206275726e20616d6f756e74206e6f7420677265617460448201526806572207468616e20360bc1b606482015260840161054c565b6109073383611056565b60405182815233907fcc16f5dbb4873280815c1ee09dbd06736cffcc184412cf7a71a0fdb75d397ca59060200160405180910390a25050565b600a546000906001600160a01b0316331461096d5760405162461bcd60e51b815260040161054c906117a6565b6001600160a01b0383166000818152600d60209081526040808320805460ff19166001179055600e82529182902085905590518481527f46980fca912ef9bcdbd36877427b6b90e860769f604e89c0e67720cece530d20910160405180910390a250600192915050565b6109df611180565b61071060006111da565b600b546001600160a01b03163314610a135760405162461bcd60e51b815260040161054c90611818565b61071061122c565b606060078054610485906116e3565b60003381610a388286610b2f565b905083811015610a985760405162461bcd60e51b815260206004820152602560248201527f45524332303a2064656372656173656420616c6c6f77616e63652062656c6f77604482015264207a65726f60d81b606482015260840161054c565b610aa58286868403610c58565b506001949350505050565b6000610aba610d7d565b336000818152600f602052604090205460ff1615610aea5760405162461bcd60e51b815260040161054c90611765565b6001600160a01b0384166000908152600f6020526040902054849060ff1615610b255760405162461bcd60e51b815260040161054c90611765565b61082b858561126f565b6001600160a01b03918216600090815260016020908152604080832093909416825291909152205490565b606060098054610485906116e3565b610b71611180565b6001600160a01b038116610bd65760405162461bcd60e51b815260206004820152602660248201527f4f776e61626c653a206e6577206f776e657220697320746865207a65726f206160448201526564647265737360d01b606482015260840161054c565b610bdf816111da565b50565b600c546001600160a01b03163314610c0c5760405162461bcd60e51b815260040161054c9061171d565b6001600160a01b0381166000818152600f6020526040808220805460ff19166001179055517fffa4e6181777692565cf28528fc88fd1516ea86b56da075235fa575af6a4b8559190a250565b6001600160a01b038316610cba5760405162461bcd60e51b8152602060048201526024808201527f45524332303a20617070726f76652066726f6d20746865207a65726f206164646044820152637265737360e01b606482015260840161054c565b6001600160a01b038216610d1b5760405162461bcd60e51b815260206004820152602260248201527f45524332303a20617070726f766520746f20746865207a65726f206164647265604482015261737360f01b606482015260840161054c565b6001600160a01b0383811660008181526001602090815260408083209487168084529482529182902085905590518481527f8c5be1e5ebec7d5bd14f71427d1e84f3dd0314c0f7b2291e5b200ac8c7c3b92591015b60405180910390a3505050565b600554600160a01b900460ff16156107105760405162461bcd60e51b815260206004820152601060248201526f14185d5cd8589b194e881c185d5cd95960821b604482015260640161054c565b600033610dd885828561127d565b610aa58585856112f7565b610deb61149b565b6005805460ff60a01b191690557f5db9ee0a495bf2e6ff9c91a7834c1ba4fdd244a5e8aa4e537bd38aeae4b073aa335b6040516001600160a01b03909116815260200160405180910390a1565b6000610e42610d7d565b336000908152600d602052604090205460ff16610e715760405162461bcd60e51b815260040161054c9061185b565b6001600160a01b0383166000908152600f6020526040902054839060ff1615610eac5760405162461bcd60e51b815260040161054c90611765565b6001600160a01b038416610f0e5760405162461bcd60e51b815260206004820152602360248201527f46696174546f6b656e3a206d696e7420746f20746865207a65726f206164647260448201526265737360e81b606482015260840161054c565b60008311610f705760405162461bcd60e51b815260206004820152602960248201527f46696174546f6b656e3a206d696e7420616d6f756e74206e6f7420677265617460448201526806572207468616e20360bc1b606482015260840161054c565b336000908152600e602052604090205480841115610fe75760405162461bcd60e51b815260206004820152602e60248201527f46696174546f6b656e3a206d696e7420616d6f756e742065786365656473206d60448201526d696e746572416c6c6f77616e636560901b606482015260840161054c565b610ff184826118b5565b336000908152600e602052604090205561100b85856114eb565b6040518481526001600160a01b0386169033907fab8530f87dc9b59234c4623bf917212bb2536d647574c8e7e5da92c2ede0c9f89060200160405180910390a3506001949350505050565b6001600160a01b0382166110b65760405162461bcd60e51b815260206004820152602160248201527f45524332303a206275726e2066726f6d20746865207a65726f206164647265736044820152607360f81b606482015260840161054c565b6001600160a01b0382166000908152602081905260409020548181101561112a5760405162461bcd60e51b815260206004820152602260248201527f45524332303a206275726e20616d6f756e7420657863656564732062616c616e604482015261636560f01b606482015260840161054c565b6001600160a01b0383166000818152602081815260408083208686039055600280548790039055518581529192917fddf252ad1be2c89b69c2b068fc378daa952ba7f163c4a11628f55a4df523b3ef9101610d70565b6005546001600160a01b031633146107105760405162461bcd60e51b815260206004820181905260248201527f4f776e61626c653a2063616c6c6572206973206e6f7420746865206f776e6572604482015260640161054c565b600580546001600160a01b038381166001600160a01b0319831681179093556040519116919082907f8be0079c531659141344cd1fd0a4f28419497f9722a3daafe3b4186f6b6457e090600090a35050565b611234610d7d565b6005805460ff60a01b1916600160a01b1790557f62e78cea01bee320cd4e420270b5ea74000d11b0c9f74754ebdbfc544b05a258610e1b3390565b6000336105168185856112f7565b60006112898484610b2f565b905060001981146112f157818110156112e45760405162461bcd60e51b815260206004820152601d60248201527f45524332303a20696e73756666696369656e7420616c6c6f77616e6365000000604482015260640161054c565b6112f18484848403610c58565b50505050565b6001600160a01b03831661135b5760405162461bcd60e51b815260206004820152602560248201527f45524332303a207472616e736665722066726f6d20746865207a65726f206164604482015264647265737360d81b606482015260840161054c565b6001600160a01b0382166113bd5760405162461bcd60e51b815260206004820152602360248201527f45524332303a207472616e7366657220746f20746865207a65726f206164647260448201526265737360e81b606482015260840161054c565b6001600160a01b038316600090815260208190526040902054818110156114355760405162461bcd60e51b815260206004820152602660248201527f45524332303a207472616e7366657220616d6f756e7420657863656564732062604482015265616c616e636560d01b606482015260840161054c565b6001600160a01b03848116600081815260208181526040808320878703905593871680835291849020805487019055925185815290927fddf252ad1be2c89b69c2b068fc378daa952ba7f163c4a11628f55a4df523b3ef910160405180910390a36112f1565b600554600160a01b900460ff166107105760405162461bcd60e51b815260206004820152601460248201527314185d5cd8589b194e881b9bdd081c185d5cd95960621b604482015260640161054c565b6001600160a01b0382166115415760405162461bcd60e51b815260206004820152601f60248201527f45524332303a206d696e7420746f20746865207a65726f206164647265737300604482015260640161054c565b80600260008282546115539190611805565b90915550506001600160a01b038216600081815260208181526040808320805486019055518481527fddf252ad1be2c89b69c2b068fc378daa952ba7f163c4a11628f55a4df523b3ef910160405180910390a35050565b600060208083528351808285015260005b818110156115d7578581018301518582016040015282016115bb565b506000604082860101526040601f19601f8301168501019250505092915050565b80356001600160a01b03811681146106b757600080fd5b6000806040838503121561162257600080fd5b61162b836115f8565b946020939093013593505050565b60006020828403121561164b57600080fd5b611654826115f8565b9392505050565b60008060006060848603121561167057600080fd5b611679846115f8565b9250611687602085016115f8565b9150604084013590509250925092565b6000602082840312156116a957600080fd5b5035919050565b600080604083850312156116c357600080fd5b6116cc836115f8565b91506116da602084016115f8565b90509250929050565b600181811c908216806116f757607f821691505b60208210810361171757634e487b7160e01b600052602260045260246000fd5b50919050565b60208082526028908201527f46696174546f6b656e3a2063616c6c6572206973206e6f742074686520626c6160408201526731b5b634b9ba32b960c11b606082015260800190565b60208082526021908201527f46696174546f6b656e3a206163636f756e7420697320626c61636b6c697374656040820152601960fa1b606082015260800190565b60208082526029908201527f46696174546f6b656e3a2063616c6c6572206973206e6f7420746865206d61736040820152683a32b926b4b73a32b960b91b606082015260800190565b634e487b7160e01b600052601160045260246000fd5b8082018082111561051c5761051c6117ef565b60208082526023908201527f46696174546f6b656e3a2063616c6c6572206973206e6f74207468652070617560408201526239b2b960e91b606082015260800190565b60208082526021908201527f46696174546f6b656e3a2063616c6c6572206973206e6f742061206d696e74656040820152603960f91b606082015260800190565b6000602082840312156118ae57600080fd5b5051919050565b8181038181111561051c5761051c6117ef56fea2646970667358221220454b0a4b73df1fbdba8bb7fb79e40cd2f12dbf09bc489bb1bc6516740d02cbd264736f6c63430008130033",
  "linkReferences": {},
  "deployedLinkReferences": {}
}