{
  "_format": "hh-sol-artifact-1",
  "contractName": "BankBackedToken",
  "sourceName": "contracts/BankBackedToken.sol",
  "abi": [
    {
      "inputs": [
        {
          "internalType": "string",
          "name": "tokenName",
          "type": "string"
        },
        {
          "internalType": "string",
          "name": "tokenSymbol",
          "type": "string"
        },
        {
          "internalType": "string",
          "name": "tokenCurrency",
          "type": "string"
        },
        {
          "internalType": "uint8",
          "name": "tokenDecimals",
          "type": "uint8"
        },
        {
          "internalType": "address",
          "name": "newMasterMinter",
          "type": "address"
        },
        {
          "internalType": "address",
          "name": "newPauser",
          "type": "address"
        },
        {
          "internalType": "address",
          "name": "newBlacklister",
          "type": "address"
        },
        {
          "internalType": "address",
          "name": "newOwner",
          "type": "address"
        },
        {
          "internalType": "address",
          "name": "_bankOracle",
          "type": "address"
        }
      ],
      "stateMutability": "nonpayable",
      "type": "constructor"
    },
    {
      "anonymous": false,
      "inputs": [
        {
          "indexed": true,
          "internalType": "address",
          "name": "owner",
          "type": "address"
        },
        {
          "indexed": true,
          "internalType": "address",
          "name": "spender",
          "type": "address"
        },
        {
          "indexed": false,
          "internalType": "uint256",
          "name": "value",
          "type": "uint256"
        }
      ],
      "name": "Approval",
      "type": "event"
    },
    {
      "anonymous": false,
      "inputs": [
        {
          "indexed": true,
          "internalType": "address",
          "name": "account",
          "type": "address"
        }
      ],
      "name": "Blacklisted",
      "type": "event"
    },
    {
      "anonymous": false,
      "inputs": [
        {
          "indexed": true,
          "internalType": "address",
          "name": "newBlacklister",
          "type": "address"
        }
      ],
      "name": "BlacklisterChanged",
      "type": "event"
    },
    {
      "anonymous": false,
      "inputs": [
        {
          "indexed": true,
          "internalType": "address",
          "name": "burner",
          "type": "address"
        },
        {
          "indexed": false,
          "internalType": "uint256",
          "name": "amount",
          "type": "uint256"
        }
      ],
      "name": "Burn",
      "type": "event"
    },
    {
      "anonymous": false,
      "inputs": [
        {
          "indexed": true,
          "internalType": "address",
          "name": "newMasterMinter",
          "type": "address"
        }
      ],
      "name": "MasterMinterChanged",
      "type": "event"
    },
    {
      "anonymous": false,
      "inputs": [
        {
          "indexed": true,
          "internalType": "address",
          "name": "minter",
          "type": "address"
        },
        {
          "indexed": true,
          "internalType": "address",
          "name": "to",
          "type": "address"
        },
        {
          "indexed": false,
          "internalType": "uint256",
          "name": "amount",
          "type": "uint256"
        }
      ],
      "name": "Mint",
      "type": "event"
    },
    {
      "anonymous": false,
      "inputs": [
        {
          "indexed": true,
          "internalType": "address",
          "name": "minter",
          "type": "address"
        },
        {
          "indexed": false,
          "internalType": "uint256",
          "name": "minterAllowedAmount",
          "type": "uint256"
        }
      ],
      "name": "MinterConfigured",
      "type": "event"
    },
    {
      "anonymous": false,
      "inputs": [
        {
          "indexed": true,
          "internalType": "address",
          "name": "oldMinter",
          "type": "address"
        }
      ],
      "name": "MinterRemoved",
      "type": "event"
    },
    {
      "anonymous": false,
      "inputs": [
        {
          "indexed": true,
          "internalType": "address",
          "name": "previousOwner",
          "type": "address"
        },
        {
          "indexed": true,
          "internalType": "address",
          "name": "newOwner",
          "type": "address"
        }
      ],
      "name": "OwnershipTransferred",
      "type": "event"
    },
    {
      "anonymous": false,
      "inputs": [
        {
          "indexed": false,
          "internalType": "address",
          "name": "account",
          "type": "address"
        }
      ],
      "name": "Paused",
      "type": "event"
    },
    {
      "anonymous": false,
      "inputs": [
        {
          "indexed": true,
          "internalType": "address",
          "name": "newPauser",
          "type": "address"
        }
      ],
      "name": "PauserChanged",
      "type": "event"
    },
    {
      "anonymous": false,
      "inputs": [
        {
          "indexed": true,
          "internalType": "address",
          "name": "from",
          "type": "address"
        },
        {
          "indexed": true,
          "internalType": "address",
          "name": "to",
          "type": "address"
        },
        {
          "indexed": false,
          "internalType": "uint256",
          "name": "value",
          "type": "uint256"
        }
      ],
      "name": "Transfer",
      "type": "event"
    },
    {
      "anonymous": false,
      "inputs": [
        {
          "indexed": true,
          "internalType": "address",
          "name": "account",
          "type": "address"
        }
      ],
      "name": "UnBlacklisted",
      "type": "event"
    },
    {
      "anonymous": false,
      "inputs": [
        {
          "indexed": false,
          "internalType": "address",
          "name": "account",
          "type": "address"
        }
      ],
      "name": "Unpaused",
      "type": "event"
    },
    {
      "inputs": [
        {
          "internalType": "address",
          "name": "owner",
          "type": "address"
        },
        {
          "internalType": "address",
          "name": "spender",
          "type": "address"
        }
      ],
      "name": "allowance",
      "outputs": [
        {
          "internalType": "uint256",
          "name": "",
          "type": "uint256"
        }
      ],
      "stateMutability": "view",
      "type": "function"
    },
    {
      "inputs": [
        {
          "internalType": "address",
          "name": "spender",
          "type": "address"
        },
        {
          "internalType": "uint256",
          "name": "amount",
          "type": "uint256"
        }
      ],
      "name": "approve",
      "outputs": [
        {
          "internalType": "bool",
          "name": "",
          "type": "bool"
        }
      ],
      "stateMutability": "nonpayable",
      "type": "function"
    },
    {
      "inputs": [
        {
          "internalType": "address",
          "name": "account",
          "type": "address"
        }
      ],
      "name": "balanceOf",
      "outputs": [
        {
          "internalType": "uint256",
          "name": "",
          "type": "uint256"
        }
      ],
      "stateMutability": "view",
      "type": "function"
    },
    {
      "inputs": [],
      "name": "bankOracle",
      "outputs": [
        {
          "internalType": "address",
          "name": "",
          "type": "address"
        }
      ],
      "stateMutability": "view",
      "type": "function"
    },
    {
      "inputs": [
        {
          "internalType": "address",
          "name": "account",
          "type": "address"
        }
      ],
      "name": "blacklist",
      "outputs": [],
      "stateMutability": "nonpayable",
      "type": "function"
    },
    {
      "inputs": [
        {
          "internalType": "address",
          "name": "",
          "type": "address"
        }
      ],
      "name": "blacklisted",
      "outputs": [
        {
          "internalType": "bool",
          "name": "",
          "type": "bool"
        }
      ],
      "stateMutability": "view",
      "type": "function"
    },
    {
      "inputs": [],
      "name": "blacklister",
      "outputs": [
        {
          "internalType": "address",
          "name": "",
          "type": "address"
        }
      ],
      "stateMutability": "view",
      "type": "function"
    },
    {
      "inputs": [
        {
          "internalType": "uint256",
          "name": "_amount",
          "type": "uint256"
        }
      ],
      "name": "burn",
      "outputs": [],
      "stateMutability": "nonpayable",
      "type": "function"
    },
    {
      "inputs": [
        {
          "internalType": "address",
          "name": "minter",
          "type": "address"
        },
        {
          "internalType": "uint256",
          "name": "minterAllowedAmount",
          "type": "uint256"
        }
      ],
      "name": "configureMinter",
      "outputs": [
        {
          "internalType": "bool",
          "name": "",
          "type": "bool"
        }
      ],
      "stateMutability": "nonpayable",
      "type": "function"
    },
    {
      "inputs": [],
      "name": "currency",
      "outputs": [
        {
          "internalType": "string",
          "name": "",
          "type": "string"
        }
      ],
      "stateMutability": "view",
      "type": "function"
    },
    {
      "inputs": [],
      "name": "decimals",
      "outputs": [
        {
          "internalType": "uint8",
          "name": "",
          "type": "uint8"
        }
      ],
      "stateMutability": "view",
      "type": "function"
    },
    {
      "inputs": [
        {
          "internalType": "address",
          "name": "spender",
          "type": "address"
        },
        {
          "internalType": "uint256",
          "name": "subtractedValue",
          "type": "uint256"
        }
      ],
      "name": "decreaseAllowance",
      "outputs": [
        {
          "internalType": "bool",
          "name": "",
          "type": "bool"
        }
      ],
      "stateMutability": "nonpayable",
      "type": "function"
    },
    {
      "inputs": [
        {
          "internalType": "address",
          "name": "spender",
          "type": "address"
        },
        {
          "internalType": "uint256",
          "name": "addedValue",
          "type": "uint256"
        }
      ],
      "name": "increaseAllowance",
      "outputs": [
        {
          "internalType": "bool",
          "name": "",
          "type": "bool"
        }
      ],
      "stateMutability": "nonpayable",
      "type": "function"
    },
    {
      "inputs": [],
      "name": "initialMintDone",
      "outputs": [
        {
          "internalType": "bool",
          "name": "",
          "type": "bool"
        }
      ],
      "stateMutability": "view",
      "type": "function"
    },
    {
      "inputs": [
        {
          "internalType": "address",
          "name": "newMasterMinter",
          "type": "address"
        },
        {
          "internalType": "address",
          "name": "newPauser",
          "type": "address"
        },
        {
          "internalType": "address",
          "name": "newBlacklister",
          "type": "address"
        },
        {
          "internalType": "address",
          "name": "newOwner",
          "type": "address"
        }
      ],
      "name": "initializeRoles",
      "outputs": [],
      "stateMutability": "nonpayable",
      "type": "function"
    },
    {
      "inputs": [],
      "name": "masterMinter",
      "outputs": [
        {
          "internalType": "address",
          "name": "",
          "type": "address"
        }
      ],
      "stateMutability": "view",
      "type": "function"
    },
    {
      "inputs": [
        {
          "internalType": "address",
          "name": "_to",
          "type": "address"
        },
        {
          "internalType": "uint256",
          "name": "_amount",
          "type": "uint256"
        }
      ],
      "name": "mint",
      "outputs": [
        {
          "internalType": "bool",
          "name": "",
          "type": "bool"
        }
      ],
      "stateMutability": "nonpayable",
      "type": "function"
    },
    {
      "inputs": [],
      "name": "mintAdmin",
      "outputs": [
        {
          "internalType": "address",
          "name": "",
          "type": "address"
        }
      ],
      "stateMutability": "view",
      "type": "function"
    },
    {
      "inputs": [
        {
          "internalType": "address",
          "name": "",
          "type": "address"
        }
      ],
      "name": "minterAllowance",
      "outputs": [
        {
          "internalType": "uint256",
          "name": "",
          "type": "uint256"
        }
      ],
      "stateMutability": "view",
      "type": "function"
    },
    {
      "inputs": [
        {
          "internalType": "address",
          "name": "",
          "type": "address"
        }
      ],
      "name": "minters",
      "outputs": [
        {
          "internalType": "bool",
          "name": "",
          "type": "bool"
        }
      ],
      "stateMutability": "view",
      "type": "function"
    },
    {
      "inputs": [],
      "name": "name",
      "outputs": [
        {
          "internalType": "string",
          "name": "",
          "type": "string"
        }
      ],
      "stateMutability": "view",
      "type": "function"
    },
    {
      "inputs": [],
      "name": "owner",
      "outputs": [
        {
          "internalType": "address",
          "name": "",
          "type": "address"
        }
      ],
      "stateMutability": "view",
      "type": "function"
    },
    {
      "inputs": [
        {
          "internalType": "address",
          "name": "to",
          "type": "address"
        },
        {
          "internalType": "uint256",
          "name": "amount",
          "type": "uint256"
        }
      ],
      "name": "ownerMintInitial",
      "outputs": [],
      "stateMutability": "nonpayable",
      "type": "function"
    },
    {
      "inputs": [],
      "name": "pause",
      "outputs": [],
      "stateMutability": "nonpayable",
      "type": "function"
    },
    {
      "inputs": [],
      "name": "paused",
      "outputs": [
        {
          "internalType": "bool",
          "name": "",
          "type": "bool"
        }
      ],
      "stateMutability": "view",
      "type": "function"
    },
    {
      "inputs": [],
      "name": "pauser",
      "outputs": [
        {
          "internalType": "address",
          "name": "",
          "type": "address"
        }
      ],
      "stateMutability": "view",
      "type": "function"
    },
    {
      "inputs": [
        {
          "internalType": "address",
          "name": "minter",
          "type": "address"
        }
      ],
      "name": "removeMinter",
      "outputs": [
        {
          "internalType": "bool",
          "name": "",
          "type": "bool"
        }
      ],
      "stateMutability": "nonpayable",
      "type": "function"
    },
    {
      "inputs": [],
      "name": "renounceOwnership",
      "outputs": [],
      "stateMutability": "nonpayable",
      "type": "function"
    },
    {
      "inputs": [],
      "name": "rolesInitialized",
      "outputs": [
        {
          "internalType": "bool",
          "name": "",
          "type": "bool"
        }
      ],
      "stateMutability": "view",
      "type": "function"
    },
    {
      "inputs": [],
      "name": "symbol",
      "outputs": [
        {
          "internalType": "string",
          "name": "",
          "type": "string"
        }
      ],
      "stateMutability": "view",
      "type": "function"
    },
    {
      "inputs": [],
      "name": "totalSupply",
      "outputs": [
        {
          "internalType": "uint256",
          "name": "",
          "type": "uint256"
        }
      ],
      "stateMutability": "view",
      "type": "function"
    },
    {
      "inputs": [
        {
          "internalType": "address",
          "name": "recipient",
          "type": "address"
        },
        {
          "internalType": "uint256",
          "name": "amount",
          "type": "uint256"
        }
      ],
      "name": "transfer",
      "outputs": [
        {
          "internalType": "bool",
          "name": "",
          "type": "bool"
        }
      ],
      "stateMutability": "nonpayable",
      "type": "function"
    },
    {
      "inputs": [
        {
          "internalType": "address",
          "name": "sender",
          "type": "address"
        },
        {
          "internalType": "address",
          "name": "recipient",
          "type": "address"
        },
        {
          "internalType": "uint256",
          "name": "amount",
          "type": "uint256"
        }
      ],
      "name": "transferFrom",
      "outputs": [
        {
          "internalType": "bool",
          "name": "",
          "type": "bool"
        }
      ],
      "stateMutability": "nonpayable",
      "type": "function"
    },
    {
      "inputs": [
        {
          "internalType": "address",
          "name": "newOwner",
          "type": "address"
        }
      ],
      "name": "transferOwnership",
      "outputs": [],
      "stateMutability": "nonpayable",
      "type": "function"
    },
    {
      "inputs": [
        {
          "internalType": "address",
          "name": "account",
          "type": "address"
        }
      ],
      "name": "unBlacklist",
      "outputs": [],
      "stateMutability": "nonpayable",
      "type": "function"
    },
    {
      "inputs": [],
      "name": "unpause",
      "outputs": [],
      "stateMutability": "nonpayable",
      "type": "function"
    }
  ],
  "bytecode": "0x60a06040523480156200001157600080fd5b506040516200238138038062002381833981016040819052620000349162000351565b8888888883836003620000488382620004e2565b506004620000578282620004e2565b505050620000746200006e6200012960201b60201c565b6200012d565b6005805460ff60a01b1916905560066200008f8582620004e2565b5060076200009e8482620004e2565b506009620000ad8382620004e2565b506008805460ff191660ff9290921691909117905550620000d291508690506200017f565b620000dd84620001c9565b620000e88362000213565b620000f3826200012d565b60108054610100600160a81b0319166101006001600160a01b03938416021790559390931660805250620005ae95505050505050565b3390565b600580546001600160a01b038381166001600160a01b0319831681179093556040519116919082907f8be0079c531659141344cd1fd0a4f28419497f9722a3daafe3b4186f6b6457e090600090a35050565b600a80546001600160a01b0319166001600160a01b0383169081179091556040517fdb66dfa9c6b8f5226fe9aac7e51897ae8ee94ac31dc70bb6c9900b2574b707e690600090a250565b600b80546001600160a01b0319166001600160a01b0383169081179091556040517fb80482a293ca2e013eda8683c9bd7fc8347cfdaeea5ede58cba46df502c2a60490600090a250565b600c80546001600160a01b0319166001600160a01b0383169081179091556040517fc67398012c111ce95ecb7429b933096c977380ee6c421175a71a4a4c6c88c06e90600090a250565b634e487b7160e01b600052604160045260246000fd5b600082601f8301126200028557600080fd5b81516001600160401b0380821115620002a257620002a26200025d565b604051601f8301601f19908116603f01168101908282118183101715620002cd57620002cd6200025d565b81604052838152602092508683858801011115620002ea57600080fd5b600091505b838210156200030e5785820183015181830184015290820190620002ef565b600093810190920192909252949350505050565b805160ff811681146200033457600080fd5b919050565b80516001600160a01b03811681146200033457600080fd5b60008060008060008060008060006101208a8c0312156200037157600080fd5b89516001600160401b03808211156200038957600080fd5b620003978d838e0162000273565b9a5060208c0151915080821115620003ae57600080fd5b620003bc8d838e0162000273565b995060408c0151915080821115620003d357600080fd5b50620003e28c828d0162000273565b975050620003f360608b0162000322565b95506200040360808b0162000339565b94506200041360a08b0162000339565b93506200042360c08b0162000339565b92506200043360e08b0162000339565b9150620004446101008b0162000339565b90509295985092959850929598565b600181811c908216806200046857607f821691505b6020821081036200048957634e487b7160e01b600052602260045260246000fd5b50919050565b601f821115620004dd57600081815260208120601f850160051c81016020861015620004b85750805b601f850160051c820191505b81811015620004d957828155600101620004c4565b5050505b505050565b81516001600160401b03811115620004fe57620004fe6200025d565b62000516816200050f845462000453565b846200048f565b602080601f8311600181146200054e5760008415620005355750858301515b600019600386901b1c1916600185901b178555620004d9565b600085815260208120601f198616915b828110156200057f578886015182559484019460019091019084016200055e565b50858210156200059e5787850151600019600388901b60f8161c191681555b5050505050600190811b01905550565b608051611db0620005d1600039600081816103bf01526108000152611db06000f3fe608060405234801561001057600080fd5b506004361061021c5760003560e01c8063715018a611610125578063a9059cbb116100ad578063e5a6b10f1161007c578063e5a6b10f146104b7578063e8964535146104bf578063f2fde38b146104d7578063f46eccc4146104ea578063f9f92be41461050d57600080fd5b8063a9059cbb1461045b578063bd1024301461046e578063dbac26e914610481578063dd62ed3e146104a457600080fd5b80638da5cb5b116100f45780638da5cb5b1461040957806395d89b411461041a5780639772c578146104225780639fd0506d14610435578063a457c2d71461044857600080fd5b8063715018a6146103b25780637e01afc3146103ba5780638456cb59146103e15780638a6db9c3146103e957600080fd5b806339509351116101a85780634e44d956116101775780634e44d9561461033d578063585bddee146103505780635c975abb14610363578063679e699a1461037557806370a082311461038957600080fd5b806339509351146102fc5780633f4ba83a1461030f57806340c10f191461031757806342966c681461032a57600080fd5b806323b872dd116101ef57806323b872dd146102895780633092afd51461029c578063313ce567146102af57806335d99f35146102c457806336c545ca146102ef57600080fd5b806306fdde0314610221578063095ea7b31461023f57806318160ddd146102625780631a89526614610274575b600080fd5b610229610520565b6040516102369190611a0f565b60405180910390f35b61025261024d366004611a74565b6105b2565b6040519015158152602001610236565b6002545b604051908152602001610236565b610287610282366004611a9e565b6105cc565b005b610252610297366004611ab9565b610648565b6102526102aa366004611a9e565b6106dd565b60085460405160ff9091168152602001610236565b600a546102d7906001600160a01b031681565b6040516001600160a01b039091168152602001610236565b6010546102529060ff1681565b61025261030a366004611a74565b610766565b610287610788565b610252610325366004611a74565b6107bc565b610287610338366004611af5565b610870565b61025261034b366004611a74565b61097c565b61028761035e366004611a74565b610a13565b600554600160a01b900460ff16610252565b600c5461025290600160a01b900460ff1681565b610266610397366004611a9e565b6001600160a01b031660009081526020819052604090205490565b610287610b7c565b6102d77f000000000000000000000000000000000000000000000000000000000000000081565b610287610b8e565b6102666103f7366004611a9e565b600e6020526000908152604090205481565b6005546001600160a01b03166102d7565b610229610bc0565b610287610430366004611b0e565b610bcf565b600b546102d7906001600160a01b031681565b610252610456366004611a74565b610cd0565b610252610469366004611a74565b610d56565b600c546102d7906001600160a01b031681565b61025261048f366004611a9e565b600f6020526000908152604090205460ff1681565b6102666104b2366004611b62565b610dde565b610229610e09565b6010546102d79061010090046001600160a01b031681565b6102876104e5366004611a9e565b610e18565b6102526104f8366004611a9e565b600d6020526000908152604090205460ff1681565b61028761051b366004611a9e565b610e91565b60606006805461052f90611b95565b80601f016020809104026020016040519081016040528092919081815260200182805461055b90611b95565b80156105a85780601f1061057d576101008083540402835291602001916105a8565b820191906000526020600020905b81548152906001019060200180831161058b57829003601f168201915b5050505050905090565b6000336105c0818585610f07565b60019150505b92915050565b600c546001600160a01b031633146105ff5760405162461bcd60e51b81526004016105f690611bcf565b60405180910390fd5b6001600160a01b0381166000818152600f6020526040808220805460ff19169055517f117e3210bb9aa7d9baff172026820255c6f6c30ba8999d1c2fd88e2848137c4e9190a250565b600061065261102c565b6001600160a01b0384166000908152600f6020526040902054849060ff161561068d5760405162461bcd60e51b81526004016105f690611c17565b6001600160a01b0384166000908152600f6020526040902054849060ff16156106c85760405162461bcd60e51b81526004016105f690611c17565b6106d3868686611079565b9695505050505050565b600a546000906001600160a01b0316331461070a5760405162461bcd60e51b81526004016105f690611c58565b6001600160a01b0382166000818152600d60209081526040808320805460ff19169055600e909152808220829055517fe94479a9f7e1952cc78f2d6baab678adc1b772d936c6583def489e524cb666929190a25060015b919050565b6000336105c08185856107798383610dde565b6107839190611cb7565b610f07565b600b546001600160a01b031633146107b25760405162461bcd60e51b81526004016105f690611cca565b6107ba611092565b565b60006107c661102c565b336000908152600d602052604090205460ff166107f55760405162461bcd60e51b81526004016105f690611d0d565b336001600160a01b037f0000000000000000000000000000000000000000000000000000000000000000161461085f5760405162461bcd60e51b815260206004820152600f60248201526e27b7363c9036b4b73a1030b236b4b760891b60448201526064016105f6565b61086983836110e7565b9392505050565b61087861102c565b336000908152600d602052604090205460ff166108a75760405162461bcd60e51b81526004016105f690611d0d565b336000818152600f602052604090205460ff16156108d75760405162461bcd60e51b81526004016105f690611c17565b600082116109395760405162461bcd60e51b815260206004820152602960248201527f46696174546f6b656e3a206275726e20616d6f756e74206e6f7420677265617460448201526806572207468616e20360bc1b60648201526084016105f6565b61094333836111cc565b60405182815233907fcc16f5dbb4873280815c1ee09dbd06736cffcc184412cf7a71a0fdb75d397ca59060200160405180910390a25050565b600a546000906001600160a01b031633146109a95760405162461bcd60e51b81526004016105f690611c58565b6001600160a01b0383166000818152600d60209081526040808320805460ff19166001179055600e82529182902085905590518481527f46980fca912ef9bcdbd36877427b6b90e860769f604e89c0e67720cece530d20910160405180910390a250600192915050565b610a1b6112f6565b60105460ff1615610a7a5760405162461bcd60e51b8152602060048201526024808201527f46696174546f6b656e3a20696e697469616c206d696e7420616c726561647920604482015263646f6e6560e01b60648201526084016105f6565b6001600160a01b038216610ad05760405162461bcd60e51b815260206004820152601f60248201527f46696174546f6b656e3a206d696e7420746f207a65726f20616464726573730060448201526064016105f6565b60008111610b205760405162461bcd60e51b815260206004820152601d60248201527f46696174546f6b656e3a20616d6f756e74206d757374206265203e203000000060448201526064016105f6565b6010805460ff19166001179055610b378282611350565b6040518181526001600160a01b0383169033907fab8530f87dc9b59234c4623bf917212bb2536d647574c8e7e5da92c2ede0c9f8906020015b60405180910390a35050565b610b846112f6565b6107ba6000611408565b600b546001600160a01b03163314610bb85760405162461bcd60e51b81526004016105f690611cca565b6107ba61145a565b60606007805461052f90611b95565b610bd76112f6565b600c54600160a01b900460ff1615610c3d5760405162461bcd60e51b8152602060048201526024808201527f46696174546f6b656e3a20726f6c657320616c726561647920696e697469616c6044820152631a5e995960e21b60648201526084016105f6565b6001600160a01b038116610c935760405162461bcd60e51b815260206004820152601860248201527f46696174546f6b656e3a206f776e6572206973207a65726f000000000000000060448201526064016105f6565b610c9c8461149d565b610ca5836114e7565b610cae82611531565b600c805460ff60a01b1916600160a01b179055610cca81611408565b50505050565b60003381610cde8286610dde565b905083811015610d3e5760405162461bcd60e51b815260206004820152602560248201527f45524332303a2064656372656173656420616c6c6f77616e63652062656c6f77604482015264207a65726f60d81b60648201526084016105f6565b610d4b8286868403610f07565b506001949350505050565b6000610d6061102c565b336000818152600f602052604090205460ff1615610d905760405162461bcd60e51b81526004016105f690611c17565b6001600160a01b0384166000908152600f6020526040902054849060ff1615610dcb5760405162461bcd60e51b81526004016105f690611c17565b610dd5858561157b565b95945050505050565b6001600160a01b03918216600090815260016020908152604080832093909416825291909152205490565b60606009805461052f90611b95565b610e206112f6565b6001600160a01b038116610e855760405162461bcd60e51b815260206004820152602660248201527f4f776e61626c653a206e6577206f776e657220697320746865207a65726f206160448201526564647265737360d01b60648201526084016105f6565b610e8e81611408565b50565b600c546001600160a01b03163314610ebb5760405162461bcd60e51b81526004016105f690611bcf565b6001600160a01b0381166000818152600f6020526040808220805460ff19166001179055517fffa4e6181777692565cf28528fc88fd1516ea86b56da075235fa575af6a4b8559190a250565b6001600160a01b038316610f695760405162461bcd60e51b8152602060048201526024808201527f45524332303a20617070726f76652066726f6d20746865207a65726f206164646044820152637265737360e01b60648201526084016105f6565b6001600160a01b038216610fca5760405162461bcd60e51b815260206004820152602260248201527f45524332303a20617070726f766520746f20746865207a65726f206164647265604482015261737360f01b60648201526084016105f6565b6001600160a01b0383811660008181526001602090815260408083209487168084529482529182902085905590518481527f8c5be1e5ebec7d5bd14f71427d1e84f3dd0314c0f7b2291e5b200ac8c7c3b92591015b60405180910390a3505050565b600554600160a01b900460ff16156107ba5760405162461bcd60e51b815260206004820152601060248201526f14185d5cd8589b194e881c185d5cd95960821b60448201526064016105f6565b600033611087858285611589565b610d4b8585856115fd565b61109a6117a1565b6005805460ff60a01b191690557f5db9ee0a495bf2e6ff9c91a7834c1ba4fdd244a5e8aa4e537bd38aeae4b073aa335b6040516001600160a01b03909116815260200160405180910390a1565b60105460405163f8b2cb4f60e01b81523060048201526000918391839161010090046001600160a01b03169063f8b2cb4f90602401602060405180830381865afa158015611139573d6000803e3d6000fd5b505050506040513d601f19601f8201168201806040525081019061115d9190611d4e565b9050808261116a60025490565b6111749190611cb7565b11156111c25760405162461bcd60e51b815260206004820152601960248201527f496e73756666696369656e742062616e6b206261636b696e670000000000000060448201526064016105f6565b610dd585856117f1565b6001600160a01b03821661122c5760405162461bcd60e51b815260206004820152602160248201527f45524332303a206275726e2066726f6d20746865207a65726f206164647265736044820152607360f81b60648201526084016105f6565b6001600160a01b038216600090815260208190526040902054818110156112a05760405162461bcd60e51b815260206004820152602260248201527f45524332303a206275726e20616d6f756e7420657863656564732062616c616e604482015261636560f01b60648201526084016105f6565b6001600160a01b0383166000818152602081815260408083208686039055600280548790039055518581529192917fddf252ad1be2c89b69c2b068fc378daa952ba7f163c4a11628f55a4df523b3ef910161101f565b6005546001600160a01b031633146107ba5760405162461bcd60e51b815260206004820181905260248201527f4f776e61626c653a2063616c6c6572206973206e6f7420746865206f776e657260448201526064016105f6565b6001600160a01b0382166113a65760405162461bcd60e51b815260206004820152601f60248201527f45524332303a206d696e7420746f20746865207a65726f20616464726573730060448201526064016105f6565b80600260008282546113b89190611cb7565b90915550506001600160a01b038216600081815260208181526040808320805486019055518481527fddf252ad1be2c89b69c2b068fc378daa952ba7f163c4a11628f55a4df523b3ef9101610b70565b600580546001600160a01b038381166001600160a01b0319831681179093556040519116919082907f8be0079c531659141344cd1fd0a4f28419497f9722a3daafe3b4186f6b6457e090600090a35050565b61146261102c565b6005805460ff60a01b1916600160a01b1790557f62e78cea01bee320cd4e420270b5ea74000d11b0c9f74754ebdbfc544b05a2586110ca3390565b600a80546001600160a01b0319166001600160a01b0383169081179091556040517fdb66dfa9c6b8f5226fe9aac7e51897ae8ee94ac31dc70bb6c9900b2574b707e690600090a250565b600b80546001600160a01b0319166001600160a01b0383169081179091556040517fb80482a293ca2e013eda8683c9bd7fc8347cfdaeea5ede58cba46df502c2a60490600090a250565b600c80546001600160a01b0319166001600160a01b0383169081179091556040517fc67398012c111ce95ecb7429b933096c977380ee6c421175a71a4a4c6c88c06e90600090a250565b6000336105c08185856115fd565b60006115958484610dde565b90506000198114610cca57818110156115f05760405162461bcd60e51b815260206004820152601d60248201527f45524332303a20696e73756666696369656e7420616c6c6f77616e636500000060448201526064016105f6565b610cca8484848403610f07565b6001600160a01b0383166116615760405162461bcd60e51b815260206004820152602560248201527f45524332303a207472616e736665722066726f6d20746865207a65726f206164604482015264647265737360d81b60648201526084016105f6565b6001600160a01b0382166116c35760405162461bcd60e51b815260206004820152602360248201527f45524332303a207472616e7366657220746f20746865207a65726f206164647260448201526265737360e81b60648201526084016105f6565b6001600160a01b0383166000908152602081905260409020548181101561173b5760405162461bcd60e51b815260206004820152602660248201527f45524332303a207472616e7366657220616d6f756e7420657863656564732062604482015265616c616e636560d01b60648201526084016105f6565b6001600160a01b03848116600081815260208181526040808320878703905593871680835291849020805487019055925185815290927fddf252ad1be2c89b69c2b068fc378daa952ba7f163c4a11628f55a4df523b3ef910160405180910390a3610cca565b600554600160a01b900460ff166107ba5760405162461bcd60e51b815260206004820152601460248201527314185d5cd8589b194e881b9bdd081c185d5cd95960621b60448201526064016105f6565b60006117fb61102c565b336000908152600d602052604090205460ff1661182a5760405162461bcd60e51b81526004016105f690611d0d565b6001600160a01b0383166000908152600f6020526040902054839060ff16156118655760405162461bcd60e51b81526004016105f690611c17565b6001600160a01b0384166118c75760405162461bcd60e51b815260206004820152602360248201527f46696174546f6b656e3a206d696e7420746f20746865207a65726f206164647260448201526265737360e81b60648201526084016105f6565b600083116119295760405162461bcd60e51b815260206004820152602960248201527f46696174546f6b656e3a206d696e7420616d6f756e74206e6f7420677265617460448201526806572207468616e20360bc1b60648201526084016105f6565b336000908152600e6020526040902054808411156119a05760405162461bcd60e51b815260206004820152602e60248201527f46696174546f6b656e3a206d696e7420616d6f756e742065786365656473206d60448201526d696e746572416c6c6f77616e636560901b60648201526084016105f6565b6119aa8482611d67565b336000908152600e60205260409020556119c48585611350565b6040518481526001600160a01b0386169033907fab8530f87dc9b59234c4623bf917212bb2536d647574c8e7e5da92c2ede0c9f89060200160405180910390a3506001949350505050565b600060208083528351808285015260005b81811015611a3c57858101830151858201604001528201611a20565b506000604082860101526040601f19601f8301168501019250505092915050565b80356001600160a01b038116811461076157600080fd5b60008060408385031215611a8757600080fd5b611a9083611a5d565b946020939093013593505050565b600060208284031215611ab057600080fd5b61086982611a5d565b600080600060608486031215611ace57600080fd5b611ad784611a5d565b9250611ae560208501611a5d565b9150604084013590509250925092565b600060208284031215611b0757600080fd5b5035919050565b60008060008060808587031215611b2457600080fd5b611b2d85611a5d565b9350611b3b60208601611a5d565b9250611b4960408601611a5d565b9150611b5760608601611a5d565b905092959194509250565b60008060408385031215611b7557600080fd5b611b7e83611a5d565b9150611b8c60208401611a5d565b90509250929050565b600181811c90821680611ba957607f821691505b602082108103611bc957634e487b7160e01b600052602260045260246000fd5b50919050565b60208082526028908201527f46696174546f6b656e3a2063616c6c6572206973206e6f742074686520626c6160408201526731b5b634b9ba32b960c11b606082015260800190565b60208082526021908201527f46696174546f6b656e3a206163636f756e7420697320626c61636b6c697374656040820152601960fa1b606082015260800190565b60208082526029908201527f46696174546f6b656e3a2063616c6c6572206973206e6f7420746865206d61736040820152683a32b926b4b73a32b960b91b606082015260800190565b634e487b7160e01b600052601160045260246000fd5b808201808211156105c6576105c6611ca1565b60208082526023908201527f46696174546f6b656e3a2063616c6c6572206973206e6f74207468652070617560408201526239b2b960e91b606082015260800190565b60208082526021908201527f46696174546f6b656e3a2063616c6c6572206973206e6f742061206d696e74656040820152603960f91b606082015260800190565b600060208284031215611d6057600080fd5b5051919050565b818103818111156105c6576105c6611ca156fea26469706673582212203b7ece8ba1e9c9c26f9052b566dd8bd7f94df2bc84a922b58bc73a7e3a5919d964736f6c63430008130033",
  "linkReferences": {},
  "deployedLinkReferences": {}
}