{
  "_format": "hh-sol-artifact-1",
  "contractName": "FiatTokenProxy",
  "sourceName": "contracts/TokenFactory.sol",
  "abi": [
    {
      "inputs": [
        {
          "internalType": "address",
          "name": "_implementation",
          "type": "address"
        }
      ],
      "stateMutability": "nonpayable",
      "type": "constructor"
    },
    {
      "stateMutability": "payable",
      "type": "fallback"
    },
    {
      "inputs": [],
      "name": "admin",
      "outputs": [
        {
          "internalType": "address",
          "name": "",
          "type": "address"
        }
      ],
      "stateMutability": "view",
      "type": "function"
    },
    {
      "inputs": [
        {
          "internalType": "address",
          "name": "newAdmin",
          "type": "address"
        }
      ],
      "name": "changeAdmin",
      "outputs": [],
      "stateMutability": "nonpayable",
      "type": "function"
    },
    {
      "inputs": [],
      "name": "implementation",
      "outputs": [
        {
          "internalType": "address",
          "name": "",
          "type": "address"
        }
      ],
      "stateMutability": "view",
      "type": "function"
    },
    {
      "stateMutability": "payable",
      "type": "receive"
    }
  ],
  "bytecode": "0x608060405234801561001057600080fd5b5060405161027338038061027383398101604081905261002f9161005d565b600080546001600160a01b039092166001600160a01b0319928316179055600180549091163317905561008d565b60006020828403121561006f57600080fd5b81516001600160a01b038116811461008657600080fd5b9392505050565b6101d78061009c6000396000f3fe6080604052600436106100385760003560e01c80635c60da1b146100755780638f283970146100b1578063f851a440146100d15761003f565b3661003f57005b600080546040516001600160a01b0390911691369082376000803683855af43d806000843e81801561006f578184f35b8184fd5b005b34801561008157600080fd5b50600054610095906001600160a01b031681565b6040516001600160a01b03909116815260200160405180910390f35b3480156100bd57600080fd5b506100736100cc366004610171565b6100f1565b3480156100dd57600080fd5b50600154610095906001600160a01b031681565b6001546001600160a01b0316331461014f5760405162461bcd60e51b815260206004820152601b60248201527f4f6e6c792061646d696e2063616e206368616e67652061646d696e0000000000604482015260640160405180910390fd5b600180546001600160a01b0319166001600160a01b0392909216919091179055565b60006020828403121561018357600080fd5b81356001600160a01b038116811461019a57600080fd5b939250505056fea26469706673582212203ac1ee47c6b2c5b40faab9a363e46dbbb6264a540fc8c9faf7c88ab70b75a35b64736f6c63430008130033",
  "linkReferences": {},
  "deployedLinkReferences": {}
}