{
  "_format": "hh-sol-artifact-1",
  "contractName": "TokenFactory",
  "sourceName": "contracts/TokenFactory.sol",
  "abi": [
    {
      "inputs": [
        {
          "internalType": "address",
          "name": "_tokenTemplate",
          "type": "address"
        },
        {
          "internalType": "address",
          "name": "_bankOracle",
          "type": "address"
        },
        {
          "internalType": "address",
          "name": "_proxyAdmin",
          "type": "address"
        }
      ],
      "stateMutability": "nonpayable",
      "type": "constructor"
    },
    {
      "anonymous": false,
      "inputs": [
        {
          "indexed": true,
          "internalType": "address",
          "name": "token",
          "type": "address"
        },
        {
          "indexed": true,
          "internalType": "address",
          "name": "proxy",
          "type": "address"
        },
        {
          "indexed": true,
          "internalType": "address",
          "name": "deployer",
          "type": "address"
        },
        {
          "indexed": false,
          "internalType": "string",
          "name": "name",
          "type": "string"
        },
        {
          "indexed": false,
          "internalType": "string",
          "name": "symbol",
          "type": "string"
        }
      ],
      "name": "TokenDeployed",
      "type": "event"
    },
    {
      "inputs": [],
      "name": "bankOracle",
      "outputs": [
        {
          "internalType": "address",
          "name": "",
          "type": "address"
        }
      ],
      "stateMutability": "view",
      "type": "function"
    },
    {
      "inputs": [
        {
          "internalType": "string",
          "name": "name",
          "type": "string"
        },
        {
          "internalType": "string",
          "name": "symbol",
          "type": "string"
        },
        {
          "internalType": "address",
          "name": "masterMinter",
          "type": "address"
        },
        {
          "internalType": "address",
          "name": "pauser",
          "type": "address"
        },
        {
          "internalType": "address",
          "name": "blacklister",
          "type": "address"
        },
        {
          "internalType": "address",
          "name": "owner",
          "type": "address"
        }
      ],
      "name": "deployToken",
      "outputs": [
        {
          "internalType": "address",
          "name": "tokenProxy",
          "type": "address"
        },
        {
          "internalType": "address",
          "name": "implementation",
          "type": "address"
        }
      ],
      "stateMutability": "nonpayable",
      "type": "function"
    },
    {
      "inputs": [
        {
          "internalType": "uint256",
          "name": "",
          "type": "uint256"
        }
      ],
      "name": "deployments",
      "outputs": [
        {
          "internalType": "address",
          "name": "tokenAddress",
          "type": "address"
        },
        {
          "internalType": "address",
          "name": "proxyAddress",
          "type": "address"
        },
        {
          "internalType": "string",
          "name": "name",
          "type": "string"
        },
        {
          "internalType": "string",
          "name": "symbol",
          "type": "string"
        },
        {
          "internalType": "address",
          "name": "deployer",
          "type": "address"
        },
        {
          "internalType": "uint256",
          "name": "deployedAt",
          "type": "uint256"
        }
      ],
      "stateMutability": "view",
      "type": "function"
    },
    {
      "inputs": [],
      "name": "proxyAdmin",
      "outputs": [
        {
          "internalType": "address",
          "name": "",
          "type": "address"
        }
      ],
      "stateMutability": "view",
      "type": "function"
    },
    {
      "inputs": [],
      "name": "tokenTemplate",
      "outputs": [
        {
          "internalType": "address",
          "name": "",
          "type": "address"
        }
      ],
      "stateMutability": "view",
      "type": "function"
    }
  ],
  "bytecode": "0x60c060405234801561001057600080fd5b50604051610eac380380610eac83398101604081905261002f91610079565b6001600160a01b0392831660805290821660a052600080546001600160a01b031916919092161790556100bc565b80516001600160a01b038116811461007457600080fd5b919050565b60008060006060848603121561008e57600080fd5b6100978461005d565b92506100a56020850161005d565b91506100b36040850161005d565b90509250925092565b60805160a051610dbe6100ee6000396000818161011401526103a9015260008181608f01526102ae0152610dbe6000f3fe608060405234801561001057600080fd5b50600436106100575760003560e01c806306609bbe1461005c5780630814d3dd1461008a5780633e47158c146100c95780638efca370146100dc578063e89645351461010f575b600080fd5b61006f61006a366004610692565b610136565b604051610081969594939291906106fb565b60405180910390f35b6100b17f000000000000000000000000000000000000000000000000000000000000000081565b6040516001600160a01b039091168152602001610081565b6000546100b1906001600160a01b031681565b6100ef6100ea366004610808565b6102a6565b604080516001600160a01b03938416815292909116602083015201610081565b6100b17f000000000000000000000000000000000000000000000000000000000000000081565b6001818154811061014657600080fd5b60009182526020909120600690910201805460018201546002830180546001600160a01b03938416955092909116929161017f906108ad565b80601f01602080910402602001604051908101604052809291908181526020018280546101ab906108ad565b80156101f85780601f106101cd576101008083540402835291602001916101f8565b820191906000526020600020905b8154815290600101906020018083116101db57829003601f168201915b50505050509080600301805461020d906108ad565b80601f0160208091040260200160405190810160405280929190818152602001828054610239906108ad565b80156102865780601f1061025b57610100808354040283529160200191610286565b820191906000526020600020905b81548152906001019060200180831161026957829003601f168201915b50505050600483015460059093015491926001600160a01b031691905086565b6000806102d27f00000000000000000000000000000000000000000000000000000000000000006105e7565b90506000604051806020016102e690610685565b601f1982820381018352601f9091011660408181526001600160a01b03851660208301520160408051601f198184030181529082905261032992916020016108e7565b6040516020818303038152906040529050600089894260405160200161035193929190610916565b604051602081830303815290604052805190602001209050808251602084016000f56040516316a3c6bd60e01b81529094506001600160a01b038516906316a3c6bd906103d1908d908d906002908e908e908e908e907f00000000000000000000000000000000000000000000000000000000000000009060040161094b565b600060405180830381600087803b1580156103eb57600080fd5b505af11580156103ff573d6000803e3d6000fd5b50506000546040516308f2839760e41b81526001600160a01b0391821660048201529087169250638f2839709150602401600060405180830381600087803b15801561044a57600080fd5b505af115801561045e573d6000803e3d6000fd5b50506040805160c0810182526001600160a01b038088168252888116602083019081529282018f8152606083018f90523360808401524260a0840152600180548082018255600091909152835160069091027fb10e2d527612073b26eecdfd717e6a320cf44b4afac2b0732d9fcbe2b7fa0cf6810180549285166001600160a01b031993841617815595517fb10e2d527612073b26eecdfd717e6a320cf44b4afac2b0732d9fcbe2b7fa0cf78201805491909516921691909117909255519194509192507fb10e2d527612073b26eecdfd717e6a320cf44b4afac2b0732d9fcbe2b7fa0cf8909101906105519082610a27565b50606082015160038201906105669082610a27565b5060808201516004820180546001600160a01b0319166001600160a01b0392831617905560a090920151600590910155604051339185811691908716907f70d9081689458ea5f3e04968e1e634552d71b95d95003fc17d803e51fe3e7395906105d2908f908f90610ae7565b60405180910390a45050965096945050505050565b6000763d602d80600a3d3981f3363d3d373d3d3d363d730000008260601b60e81c176000526e5af43d82803e903d91602b57fd5bf38260781b17602052603760096000f090506001600160a01b0381166106805760405162461bcd60e51b8152602060048201526016602482015275115490cc4c4d8dce8818dc99585d194819985a5b195960521b604482015260640160405180910390fd5b919050565b61027380610b1683390190565b6000602082840312156106a457600080fd5b5035919050565b60005b838110156106c65781810151838201526020016106ae565b50506000910152565b600081518084526106e78160208601602086016106ab565b601f01601f19169290920160200192915050565b600060018060a01b038089168352808816602084015260c0604084015261072560c08401886106cf565b838103606085015261073781886106cf565b959091166080840152505060a00152949350505050565b634e487b7160e01b600052604160045260246000fd5b600082601f83011261077557600080fd5b813567ffffffffffffffff808211156107905761079061074e565b604051601f8301601f19908116603f011681019082821181831017156107b8576107b861074e565b816040528381528660208588010111156107d157600080fd5b836020870160208301376000602085830101528094505050505092915050565b80356001600160a01b038116811461068057600080fd5b60008060008060008060c0878903121561082157600080fd5b863567ffffffffffffffff8082111561083957600080fd5b6108458a838b01610764565b9750602089013591508082111561085b57600080fd5b5061086889828a01610764565b955050610877604088016107f1565b9350610885606088016107f1565b9250610893608088016107f1565b91506108a160a088016107f1565b90509295509295509295565b600181811c908216806108c157607f821691505b6020821081036108e157634e487b7160e01b600052602260045260246000fd5b50919050565b600083516108f98184602088016106ab565b83519083019061090d8183602088016106ab565b01949350505050565b600084516109288184602089016106ab565b84519083019061093c8183602089016106ab565b01928352505060200192915050565b600061012080835261095f8184018c6106cf565b90508281036020840152610973818b6106cf565b838103604080860191909152600382526210949360ea1b602083015260ff9a909a1660608501526001600160a01b03988916608085015296881660a0840152505092851660c084015290841660e0830152909216610100909201919091520192915050565b601f821115610a2257600081815260208120601f850160051c810160208610156109ff5750805b601f850160051c820191505b81811015610a1e57828155600101610a0b565b5050505b505050565b815167ffffffffffffffff811115610a4157610a4161074e565b610a5581610a4f84546108ad565b846109d8565b602080601f831160018114610a8a5760008415610a725750858301515b600019600386901b1c1916600185901b178555610a1e565b600085815260208120601f198616915b82811015610ab957888601518255948401946001909101908401610a9a565b5085821015610ad75787850151600019600388901b60f8161c191681555b5050505050600190811b01905550565b604081526000610afa60408301856106cf565b8281036020840152610b0c81856106cf565b9594505050505056fe608060405234801561001057600080fd5b5060405161027338038061027383398101604081905261002f9161005d565b600080546001600160a01b039092166001600160a01b0319928316179055600180549091163317905561008d565b60006020828403121561006f57600080fd5b81516001600160a01b038116811461008657600080fd5b9392505050565b6101d78061009c6000396000f3fe6080604052600436106100385760003560e01c80635c60da1b146100755780638f283970146100b1578063f851a440146100d15761003f565b3661003f57005b600080546040516001600160a01b0390911691369082376000803683855af43d806000843e81801561006f578184f35b8184fd5b005b34801561008157600080fd5b50600054610095906001600160a01b031681565b6040516001600160a01b03909116815260200160405180910390f35b3480156100bd57600080fd5b506100736100cc366004610171565b6100f1565b3480156100dd57600080fd5b50600154610095906001600160a01b031681565b6001546001600160a01b0316331461014f5760405162461bcd60e51b815260206004820152601b60248201527f4f6e6c792061646d696e2063616e206368616e67652061646d696e0000000000604482015260640160405180910390fd5b600180546001600160a01b0319166001600160a01b0392909216919091179055565b60006020828403121561018357600080fd5b81356001600160a01b038116811461019a57600080fd5b939250505056fea26469706673582212203ac1ee47c6b2c5b40faab9a363e46dbbb6264a540fc8c9faf7c88ab70b75a35b64736f6c63430008130033a264697066735822122014684fee707a04d5ff60c5209d0a775eb337074b959c1a166d04d4634089060564736f6c63430008130033",
  "linkReferences": {},
  "deployedLinkReferences": {}
}