{
  "_format": "hh-sol-artifact-1",
  "contractName": "TokenFactory",
  "sourceName": "contracts/TokenFactory.sol",
  "abi": [
    {
      "anonymous": false,
      "inputs": [
        {
          "indexed": true,
          "internalType": "address",
          "name": "token",
          "type": "address"
        },
        {
          "indexed": true,
          "internalType": "address",
          "name": "proxy",
          "type": "address"
        },
        {
          "indexed": true,
          "internalType": "address",
          "name": "deployer",
          "type": "address"
        },
        {
          "indexed": false,
          "internalType": "string",
          "name": "name",
          "type": "string"
        },
        {
          "indexed": false,
          "internalType": "string",
          "name": "symbol",
          "type": "string"
        },
        {
          "indexed": false,
          "internalType": "address",
          "name": "oracle",
          "type": "address"
        },
        {
          "indexed": false,
          "internalType": "string",
          "name": "currency",
          "type": "string"
        },
        {
          "indexed": false,
          "internalType": "uint8",
          "name": "decimals",
          "type": "uint8"
        }
      ],
      "name": "TokenDeployed",
      "type": "event"
    },
    {
      "inputs": [
        {
          "internalType": "string",
          "name": "name",
          "type": "string"
        },
        {
          "internalType": "string",
          "name": "symbol",
          "type": "string"
        },
        {
          "internalType": "address",
          "name": "masterMinter",
          "type": "address"
        },
        {
          "internalType": "address",
          "name": "pauser",
          "type": "address"
        },
        {
          "internalType": "address",
          "name": "blacklister",
          "type": "address"
        },
        {
          "internalType": "address",
          "name": "owner",
          "type": "address"
        }
      ],
      "name": "deployToken",
      "outputs": [
        {
          "internalType": "address",
          "name": "tokenProxy",
          "type": "address"
        },
        {
          "internalType": "address",
          "name": "implementation",
          "type": "address"
        }
      ],
      "stateMutability": "nonpayable",
      "type": "function"
    },
    {
      "inputs": [
        {
          "internalType": "uint256",
          "name": "",
          "type": "uint256"
        }
      ],
      "name": "deployments",
      "outputs": [
        {
          "internalType": "address",
          "name": "tokenAddress",
          "type": "address"
        },
        {
          "internalType": "string",
          "name": "name",
          "type": "string"
        },
        {
          "internalType": "string",
          "name": "symbol",
          "type": "string"
        },
        {
          "internalType": "address",
          "name": "deployer",
          "type": "address"
        },
        {
          "internalType": "uint256",
          "name": "deployedAt",
          "type": "uint256"
        }
      ],
      "stateMutability": "view",
      "type": "function"
    }
  ],
  "bytecode": "0x608060405234801561001057600080fd5b506136d0806100206000396000f3fe60806040523480156200001157600080fd5b50600436106200003a5760003560e01c806306609bbe146200003f5780638efca3701462000072575b600080fd5b6200005662000050366004620004a2565b620000aa565b6040516200006995949392919062000504565b60405180910390f35b62000089620000833660046200061a565b62000221565b604080516001600160a01b0393841681529290911660208301520162000069565b60008181548110620000bb57600080fd5b6000918252602090912060059091020180546001820180546001600160a01b03909216935090620000ec90620006ce565b80601f01602080910402602001604051908101604052809291908181526020018280546200011a90620006ce565b80156200016b5780601f106200013f576101008083540402835291602001916200016b565b820191906000526020600020905b8154815290600101906020018083116200014d57829003601f168201915b5050505050908060020180546200018290620006ce565b80601f0160208091040260200160405190810160405280929190818152602001828054620001b090620006ce565b8015620002015780601f10620001d55761010080835404028352916020019162000201565b820191906000526020600020905b815481529060010190602001808311620001e357829003601f168201915b50505050600383015460049093015491926001600160a01b031691905085565b604080518082018252600381526210949360ea1b6020820152905160009182916006908390620002519062000486565b604051809103906000f0801580156200026e573d6000803e3d6000fd5b5060405163f2fde38b60e01b81526001600160a01b0388811660048301529192509082169063f2fde38b90602401600060405180830381600087803b158015620002b757600080fd5b505af1158015620002cc573d6000803e3d6000fd5b5050505060008b8b85858d8d8d8d89604051620002e99062000494565b620002fd999897969594939291906200070a565b604051809103906000f0801580156200031a573d6000803e3d6000fd5b50905060006040518060a00160405280836001600160a01b031681526020018e81526020018d8152602001336001600160a01b0316815260200142815250908060018154018082558091505060019003906000526020600020906005020160009091909190915060008201518160000160006101000a8154816001600160a01b0302191690836001600160a01b031602179055506020820151816001019081620003c59190620007e4565b5060408201516002820190620003dc9082620007e4565b5060608201518160030160006101000a8154816001600160a01b0302191690836001600160a01b03160217905550608082015181600401555050336001600160a01b0316816001600160a01b0316826001600160a01b03167f4562ff56f984035063d9fcf4a354dd39a70d56f122055f018d12f665dce355268f8f878a8a6040516200046d959493929190620008b1565b60405180910390a49b8c9b509950505050505050505050565b610a04806200091683390190565b612381806200131a83390190565b600060208284031215620004b557600080fd5b5035919050565b6000815180845260005b81811015620004e457602081850181015186830182015201620004c6565b506000602082860101526020601f19601f83011685010191505092915050565b600060018060a01b03808816835260a060208401526200052860a0840188620004bc565b83810360408501526200053c8188620004bc565b9590911660608401525050608001529392505050565b634e487b7160e01b600052604160045260246000fd5b600082601f8301126200057a57600080fd5b813567ffffffffffffffff8082111562000598576200059862000552565b604051601f8301601f19908116603f01168101908282118183101715620005c357620005c362000552565b81604052838152866020858801011115620005dd57600080fd5b836020870160208301376000602085830101528094505050505092915050565b80356001600160a01b03811681146200061557600080fd5b919050565b60008060008060008060c087890312156200063457600080fd5b863567ffffffffffffffff808211156200064d57600080fd5b6200065b8a838b0162000568565b975060208901359150808211156200067257600080fd5b506200068189828a0162000568565b9550506200069260408801620005fd565b9350620006a260608801620005fd565b9250620006b260808801620005fd565b9150620006c260a08801620005fd565b90509295509295509295565b600181811c90821680620006e357607f821691505b6020821081036200070457634e487b7160e01b600052602260045260246000fd5b50919050565b6000610120808352620007208184018d620004bc565b9050828103602084015262000736818c620004bc565b905082810360408401526200074c818b620004bc565b60ff99909916606084015250506001600160a01b03958616608082015293851660a085015291841660c0840152831660e0830152909116610100909101529392505050565b601f821115620007df57600081815260208120601f850160051c81016020861015620007ba5750805b601f850160051c820191505b81811015620007db57828155600101620007c6565b5050505b505050565b815167ffffffffffffffff81111562000801576200080162000552565b6200081981620008128454620006ce565b8462000791565b602080601f831160018114620008515760008415620008385750858301515b600019600386901b1c1916600185901b178555620007db565b600085815260208120601f198616915b82811015620008825788860151825594840194600190910190840162000861565b5085821015620008a15787850151600019600388901b60f8161c191681555b5050505050600190811b01905550565b60a081526000620008c660a0830188620004bc565b8281036020840152620008da8188620004bc565b6001600160a01b038716604085015283810360608501529050620008ff8186620004bc565b91505060ff83166080830152969550505050505056fe608060405234801561001057600080fd5b5061001a33610039565b336000908152600260205260409020805460ff19166001179055610089565b600080546001600160a01b038381166001600160a01b0319831681178455604051919092169283917f8be0079c531659141344cd1fd0a4f28419497f9722a3daafe3b4186f6b6457e09190a35050565b61096c806100986000396000f3fe608060405234801561001057600080fd5b50600436106100935760003560e01c80638da5cb5b116100665780638da5cb5b146100f45780638ff29cfe1461010f578063f2fde38b14610142578063f8b2cb4f14610155578063fd57f7ca1461019057600080fd5b80632fd8661f1461009857806365f5bc44146100ad578063715018a6146100c0578063875a069f146100c8575b600080fd5b6100ab6100a63660046105bd565b6101a3565b005b6100ab6100bb36600461069c565b6101d6565b6100ab6102f2565b6100db6100d63660046106f3565b610306565b6040516100eb949392919061075b565b60405180910390f35b6000546040516001600160a01b0390911681526020016100eb565b61013261011d3660046106f3565b60026020526000908152604090205460ff1681565b60405190151581526020016100eb565b6100ab6101503660046106f3565b6103bb565b6101826101633660046106f3565b6001600160a01b03166000908152600160208190526040909120015490565b6040519081526020016100eb565b6100ab61019e36600461078c565b610434565b6101ab6104f7565b6001600160a01b03919091166000908152600260205260409020805460ff1916911515919091179055565b3360009081526002602052604090205460ff1661022b5760405162461bcd60e51b815260206004820152600e60248201526d139bdd08185d5d1a1bdc9a5e995960921b60448201526064015b60405180910390fd5b6001600160a01b0383166000908152600160205260409020600381015460ff1661028c5760405162461bcd60e51b81526020600482015260126024820152714163636f756e74206e6f742061637469766560701b6044820152606401610222565b6001810180549083905542600283018190556040805183815260208101869052908101919091526001600160a01b038616907fd8b455e949c1d522b95778231eec1beff214f4fbe062f64b18a86272caaa1fc79060600160405180910390a25050505050565b6102fa6104f7565b6103046000610551565b565b600160205260009081526040902080548190610321906107da565b80601f016020809104026020016040519081016040528092919081815260200182805461034d906107da565b801561039a5780601f1061036f5761010080835404028352916020019161039a565b820191906000526020600020905b81548152906001019060200180831161037d57829003601f168201915b50505050600183015460028401546003909401549293909290915060ff1684565b6103c36104f7565b6001600160a01b0381166104285760405162461bcd60e51b815260206004820152602660248201527f4f776e61626c653a206e6577206f776e657220697320746865207a65726f206160448201526564647265737360d01b6064820152608401610222565b61043181610551565b50565b61043c6104f7565b60408051608081018252828152600060208083018290528284018290526001606084018190526001600160a01b0387168352905291909120815181906104829082610863565b506020820151600182015560408083015160028301556060909201516003909101805460ff1916911515919091179055516001600160a01b038316907f74012d7bf32d144e6f82485962ee534caa2679daa5f63a3b2956692400796714906104eb908490610923565b60405180910390a25050565b6000546001600160a01b031633146103045760405162461bcd60e51b815260206004820181905260248201527f4f776e61626c653a2063616c6c6572206973206e6f7420746865206f776e65726044820152606401610222565b600080546001600160a01b038381166001600160a01b0319831681178455604051919092169283917f8be0079c531659141344cd1fd0a4f28419497f9722a3daafe3b4186f6b6457e09190a35050565b80356001600160a01b03811681146105b857600080fd5b919050565b600080604083850312156105d057600080fd5b6105d9836105a1565b9150602083013580151581146105ee57600080fd5b809150509250929050565b634e487b7160e01b600052604160045260246000fd5b600082601f83011261062057600080fd5b813567ffffffffffffffff8082111561063b5761063b6105f9565b604051601f8301601f19908116603f01168101908282118183101715610663576106636105f9565b8160405283815286602085880101111561067c57600080fd5b836020870160208301376000602085830101528094505050505092915050565b6000806000606084860312156106b157600080fd5b6106ba846105a1565b9250602084013567ffffffffffffffff8111156106d657600080fd5b6106e28682870161060f565b925050604084013590509250925092565b60006020828403121561070557600080fd5b61070e826105a1565b9392505050565b6000815180845260005b8181101561073b5760208185018101518683018201520161071f565b506000602082860101526020601f19601f83011685010191505092915050565b60808152600061076e6080830187610715565b60208301959095525060408101929092521515606090910152919050565b6000806040838503121561079f57600080fd5b6107a8836105a1565b9150602083013567ffffffffffffffff8111156107c457600080fd5b6107d08582860161060f565b9150509250929050565b600181811c908216806107ee57607f821691505b60208210810361080e57634e487b7160e01b600052602260045260246000fd5b50919050565b601f82111561085e57600081815260208120601f850160051c8101602086101561083b5750805b601f850160051c820191505b8181101561085a57828155600101610847565b5050505b505050565b815167ffffffffffffffff81111561087d5761087d6105f9565b6108918161088b84546107da565b84610814565b602080601f8311600181146108c657600084156108ae5750858301515b600019600386901b1c1916600185901b17855561085a565b600085815260208120601f198616915b828110156108f5578886015182559484019460019091019084016108d6565b50858210156109135787850151600019600388901b60f8161c191681555b5050505050600190811b01905550565b60208152600061070e602083018461071556fea26469706673582212205dce28c04c1df7c52ed257019b8e4d6981942ae02dfda8e60e72196af688b96a64736f6c6343000813003360a06040523480156200001157600080fd5b506040516200238138038062002381833981016040819052620000349162000351565b8888888883836003620000488382620004e2565b506004620000578282620004e2565b505050620000746200006e6200012960201b60201c565b6200012d565b6005805460ff60a01b1916905560066200008f8582620004e2565b5060076200009e8482620004e2565b506009620000ad8382620004e2565b506008805460ff191660ff9290921691909117905550620000d291508690506200017f565b620000dd84620001c9565b620000e88362000213565b620000f3826200012d565b60108054610100600160a81b0319166101006001600160a01b03938416021790559390931660805250620005ae95505050505050565b3390565b600580546001600160a01b038381166001600160a01b0319831681179093556040519116919082907f8be0079c531659141344cd1fd0a4f28419497f9722a3daafe3b4186f6b6457e090600090a35050565b600a80546001600160a01b0319166001600160a01b0383169081179091556040517fdb66dfa9c6b8f5226fe9aac7e51897ae8ee94ac31dc70bb6c9900b2574b707e690600090a250565b600b80546001600160a01b0319166001600160a01b0383169081179091556040517fb80482a293ca2e013eda8683c9bd7fc8347cfdaeea5ede58cba46df502c2a60490600090a250565b600c80546001600160a01b0319166001600160a01b0383169081179091556040517fc67398012c111ce95ecb7429b933096c977380ee6c421175a71a4a4c6c88c06e90600090a250565b634e487b7160e01b600052604160045260246000fd5b600082601f8301126200028557600080fd5b81516001600160401b0380821115620002a257620002a26200025d565b604051601f8301601f19908116603f01168101908282118183101715620002cd57620002cd6200025d565b81604052838152602092508683858801011115620002ea57600080fd5b600091505b838210156200030e5785820183015181830184015290820190620002ef565b600093810190920192909252949350505050565b805160ff811681146200033457600080fd5b919050565b80516001600160a01b03811681146200033457600080fd5b60008060008060008060008060006101208a8c0312156200037157600080fd5b89516001600160401b03808211156200038957600080fd5b620003978d838e0162000273565b9a5060208c0151915080821115620003ae57600080fd5b620003bc8d838e0162000273565b995060408c0151915080821115620003d357600080fd5b50620003e28c828d0162000273565b975050620003f360608b0162000322565b95506200040360808b0162000339565b94506200041360a08b0162000339565b93506200042360c08b0162000339565b92506200043360e08b0162000339565b9150620004446101008b0162000339565b90509295985092959850929598565b600181811c908216806200046857607f821691505b6020821081036200048957634e487b7160e01b600052602260045260246000fd5b50919050565b601f821115620004dd57600081815260208120601f850160051c81016020861015620004b85750805b601f850160051c820191505b81811015620004d957828155600101620004c4565b5050505b505050565b81516001600160401b03811115620004fe57620004fe6200025d565b62000516816200050f845462000453565b846200048f565b602080601f8311600181146200054e5760008415620005355750858301515b600019600386901b1c1916600185901b178555620004d9565b600085815260208120601f198616915b828110156200057f578886015182559484019460019091019084016200055e565b50858210156200059e5787850151600019600388901b60f8161c191681555b5050505050600190811b01905550565b608051611db0620005d1600039600081816103bf01526108000152611db06000f3fe608060405234801561001057600080fd5b506004361061021c5760003560e01c8063715018a611610125578063a9059cbb116100ad578063e5a6b10f1161007c578063e5a6b10f146104b7578063e8964535146104bf578063f2fde38b146104d7578063f46eccc4146104ea578063f9f92be41461050d57600080fd5b8063a9059cbb1461045b578063bd1024301461046e578063dbac26e914610481578063dd62ed3e146104a457600080fd5b80638da5cb5b116100f45780638da5cb5b1461040957806395d89b411461041a5780639772c578146104225780639fd0506d14610435578063a457c2d71461044857600080fd5b8063715018a6146103b25780637e01afc3146103ba5780638456cb59146103e15780638a6db9c3146103e957600080fd5b806339509351116101a85780634e44d956116101775780634e44d9561461033d578063585bddee146103505780635c975abb14610363578063679e699a1461037557806370a082311461038957600080fd5b806339509351146102fc5780633f4ba83a1461030f57806340c10f191461031757806342966c681461032a57600080fd5b806323b872dd116101ef57806323b872dd146102895780633092afd51461029c578063313ce567146102af57806335d99f35146102c457806336c545ca146102ef57600080fd5b806306fdde0314610221578063095ea7b31461023f57806318160ddd146102625780631a89526614610274575b600080fd5b610229610520565b6040516102369190611a0f565b60405180910390f35b61025261024d366004611a74565b6105b2565b6040519015158152602001610236565b6002545b604051908152602001610236565b610287610282366004611a9e565b6105cc565b005b610252610297366004611ab9565b610648565b6102526102aa366004611a9e565b6106dd565b60085460405160ff9091168152602001610236565b600a546102d7906001600160a01b031681565b6040516001600160a01b039091168152602001610236565b6010546102529060ff1681565b61025261030a366004611a74565b610766565b610287610788565b610252610325366004611a74565b6107bc565b610287610338366004611af5565b610870565b61025261034b366004611a74565b61097c565b61028761035e366004611a74565b610a13565b600554600160a01b900460ff16610252565b600c5461025290600160a01b900460ff1681565b610266610397366004611a9e565b6001600160a01b031660009081526020819052604090205490565b610287610b7c565b6102d77f000000000000000000000000000000000000000000000000000000000000000081565b610287610b8e565b6102666103f7366004611a9e565b600e6020526000908152604090205481565b6005546001600160a01b03166102d7565b610229610bc0565b610287610430366004611b0e565b610bcf565b600b546102d7906001600160a01b031681565b610252610456366004611a74565b610cd0565b610252610469366004611a74565b610d56565b600c546102d7906001600160a01b031681565b61025261048f366004611a9e565b600f6020526000908152604090205460ff1681565b6102666104b2366004611b62565b610dde565b610229610e09565b6010546102d79061010090046001600160a01b031681565b6102876104e5366004611a9e565b610e18565b6102526104f8366004611a9e565b600d6020526000908152604090205460ff1681565b61028761051b366004611a9e565b610e91565b60606006805461052f90611b95565b80601f016020809104026020016040519081016040528092919081815260200182805461055b90611b95565b80156105a85780601f1061057d576101008083540402835291602001916105a8565b820191906000526020600020905b81548152906001019060200180831161058b57829003601f168201915b5050505050905090565b6000336105c0818585610f07565b60019150505b92915050565b600c546001600160a01b031633146105ff5760405162461bcd60e51b81526004016105f690611bcf565b60405180910390fd5b6001600160a01b0381166000818152600f6020526040808220805460ff19169055517f117e3210bb9aa7d9baff172026820255c6f6c30ba8999d1c2fd88e2848137c4e9190a250565b600061065261102c565b6001600160a01b0384166000908152600f6020526040902054849060ff161561068d5760405162461bcd60e51b81526004016105f690611c17565b6001600160a01b0384166000908152600f6020526040902054849060ff16156106c85760405162461bcd60e51b81526004016105f690611c17565b6106d3868686611079565b9695505050505050565b600a546000906001600160a01b0316331461070a5760405162461bcd60e51b81526004016105f690611c58565b6001600160a01b0382166000818152600d60209081526040808320805460ff19169055600e909152808220829055517fe94479a9f7e1952cc78f2d6baab678adc1b772d936c6583def489e524cb666929190a25060015b919050565b6000336105c08185856107798383610dde565b6107839190611cb7565b610f07565b600b546001600160a01b031633146107b25760405162461bcd60e51b81526004016105f690611cca565b6107ba611092565b565b60006107c661102c565b336000908152600d602052604090205460ff166107f55760405162461bcd60e51b81526004016105f690611d0d565b336001600160a01b037f0000000000000000000000000000000000000000000000000000000000000000161461085f5760405162461bcd60e51b815260206004820152600f60248201526e27b7363c9036b4b73a1030b236b4b760891b60448201526064016105f6565b61086983836110e7565b9392505050565b61087861102c565b336000908152600d602052604090205460ff166108a75760405162461bcd60e51b81526004016105f690611d0d565b336000818152600f602052604090205460ff16156108d75760405162461bcd60e51b81526004016105f690611c17565b600082116109395760405162461bcd60e51b815260206004820152602960248201527f46696174546f6b656e3a206275726e20616d6f756e74206e6f7420677265617460448201526806572207468616e20360bc1b60648201526084016105f6565b61094333836111cc565b60405182815233907fcc16f5dbb4873280815c1ee09dbd06736cffcc184412cf7a71a0fdb75d397ca59060200160405180910390a25050565b600a546000906001600160a01b031633146109a95760405162461bcd60e51b81526004016105f690611c58565b6001600160a01b0383166000818152600d60209081526040808320805460ff19166001179055600e82529182902085905590518481527f46980fca912ef9bcdbd36877427b6b90e860769f604e89c0e67720cece530d20910160405180910390a250600192915050565b610a1b6112f6565b60105460ff1615610a7a5760405162461bcd60e51b8152602060048201526024808201527f46696174546f6b656e3a20696e697469616c206d696e7420616c726561647920604482015263646f6e6560e01b60648201526084016105f6565b6001600160a01b038216610ad05760405162461bcd60e51b815260206004820152601f60248201527f46696174546f6b656e3a206d696e7420746f207a65726f20616464726573730060448201526064016105f6565b60008111610b205760405162461bcd60e51b815260206004820152601d60248201527f46696174546f6b656e3a20616d6f756e74206d757374206265203e203000000060448201526064016105f6565b6010805460ff19166001179055610b378282611350565b6040518181526001600160a01b0383169033907fab8530f87dc9b59234c4623bf917212bb2536d647574c8e7e5da92c2ede0c9f8906020015b60405180910390a35050565b610b846112f6565b6107ba6000611408565b600b546001600160a01b03163314610bb85760405162461bcd60e51b81526004016105f690611cca565b6107ba61145a565b60606007805461052f90611b95565b610bd76112f6565b600c54600160a01b900460ff1615610c3d5760405162461bcd60e51b8152602060048201526024808201527f46696174546f6b656e3a20726f6c657320616c726561647920696e697469616c6044820152631a5e995960e21b60648201526084016105f6565b6001600160a01b038116610c935760405162461bcd60e51b815260206004820152601860248201527f46696174546f6b656e3a206f776e6572206973207a65726f000000000000000060448201526064016105f6565b610c9c8461149d565b610ca5836114e7565b610cae82611531565b600c805460ff60a01b1916600160a01b179055610cca81611408565b50505050565b60003381610cde8286610dde565b905083811015610d3e5760405162461bcd60e51b815260206004820152602560248201527f45524332303a2064656372656173656420616c6c6f77616e63652062656c6f77604482015264207a65726f60d81b60648201526084016105f6565b610d4b8286868403610f07565b506001949350505050565b6000610d6061102c565b336000818152600f602052604090205460ff1615610d905760405162461bcd60e51b81526004016105f690611c17565b6001600160a01b0384166000908152600f6020526040902054849060ff1615610dcb5760405162461bcd60e51b81526004016105f690611c17565b610dd5858561157b565b95945050505050565b6001600160a01b03918216600090815260016020908152604080832093909416825291909152205490565b60606009805461052f90611b95565b610e206112f6565b6001600160a01b038116610e855760405162461bcd60e51b815260206004820152602660248201527f4f776e61626c653a206e6577206f776e657220697320746865207a65726f206160448201526564647265737360d01b60648201526084016105f6565b610e8e81611408565b50565b600c546001600160a01b03163314610ebb5760405162461bcd60e51b81526004016105f690611bcf565b6001600160a01b0381166000818152600f6020526040808220805460ff19166001179055517fffa4e6181777692565cf28528fc88fd1516ea86b56da075235fa575af6a4b8559190a250565b6001600160a01b038316610f695760405162461bcd60e51b8152602060048201526024808201527f45524332303a20617070726f76652066726f6d20746865207a65726f206164646044820152637265737360e01b60648201526084016105f6565b6001600160a01b038216610fca5760405162461bcd60e51b815260206004820152602260248201527f45524332303a20617070726f766520746f20746865207a65726f206164647265604482015261737360f01b60648201526084016105f6565b6001600160a01b0383811660008181526001602090815260408083209487168084529482529182902085905590518481527f8c5be1e5ebec7d5bd14f71427d1e84f3dd0314c0f7b2291e5b200ac8c7c3b92591015b60405180910390a3505050565b600554600160a01b900460ff16156107ba5760405162461bcd60e51b815260206004820152601060248201526f14185d5cd8589b194e881c185d5cd95960821b60448201526064016105f6565b600033611087858285611589565b610d4b8585856115fd565b61109a6117a1565b6005805460ff60a01b191690557f5db9ee0a495bf2e6ff9c91a7834c1ba4fdd244a5e8aa4e537bd38aeae4b073aa335b6040516001600160a01b03909116815260200160405180910390a1565b60105460405163f8b2cb4f60e01b81523060048201526000918391839161010090046001600160a01b03169063f8b2cb4f90602401602060405180830381865afa158015611139573d6000803e3d6000fd5b505050506040513d601f19601f8201168201806040525081019061115d9190611d4e565b9050808261116a60025490565b6111749190611cb7565b11156111c25760405162461bcd60e51b815260206004820152601960248201527f496e73756666696369656e742062616e6b206261636b696e670000000000000060448201526064016105f6565b610dd585856117f1565b6001600160a01b03821661122c5760405162461bcd60e51b815260206004820152602160248201527f45524332303a206275726e2066726f6d20746865207a65726f206164647265736044820152607360f81b60648201526084016105f6565b6001600160a01b038216600090815260208190526040902054818110156112a05760405162461bcd60e51b815260206004820152602260248201527f45524332303a206275726e20616d6f756e7420657863656564732062616c616e604482015261636560f01b60648201526084016105f6565b6001600160a01b0383166000818152602081815260408083208686039055600280548790039055518581529192917fddf252ad1be2c89b69c2b068fc378daa952ba7f163c4a11628f55a4df523b3ef910161101f565b6005546001600160a01b031633146107ba5760405162461bcd60e51b815260206004820181905260248201527f4f776e61626c653a2063616c6c6572206973206e6f7420746865206f776e657260448201526064016105f6565b6001600160a01b0382166113a65760405162461bcd60e51b815260206004820152601f60248201527f45524332303a206d696e7420746f20746865207a65726f20616464726573730060448201526064016105f6565b80600260008282546113b89190611cb7565b90915550506001600160a01b038216600081815260208181526040808320805486019055518481527fddf252ad1be2c89b69c2b068fc378daa952ba7f163c4a11628f55a4df523b3ef9101610b70565b600580546001600160a01b038381166001600160a01b0319831681179093556040519116919082907f8be0079c531659141344cd1fd0a4f28419497f9722a3daafe3b4186f6b6457e090600090a35050565b61146261102c565b6005805460ff60a01b1916600160a01b1790557f62e78cea01bee320cd4e420270b5ea74000d11b0c9f74754ebdbfc544b05a2586110ca3390565b600a80546001600160a01b0319166001600160a01b0383169081179091556040517fdb66dfa9c6b8f5226fe9aac7e51897ae8ee94ac31dc70bb6c9900b2574b707e690600090a250565b600b80546001600160a01b0319166001600160a01b0383169081179091556040517fb80482a293ca2e013eda8683c9bd7fc8347cfdaeea5ede58cba46df502c2a60490600090a250565b600c80546001600160a01b0319166001600160a01b0383169081179091556040517fc67398012c111ce95ecb7429b933096c977380ee6c421175a71a4a4c6c88c06e90600090a250565b6000336105c08185856115fd565b60006115958484610dde565b90506000198114610cca57818110156115f05760405162461bcd60e51b815260206004820152601d60248201527f45524332303a20696e73756666696369656e7420616c6c6f77616e636500000060448201526064016105f6565b610cca8484848403610f07565b6001600160a01b0383166116615760405162461bcd60e51b815260206004820152602560248201527f45524332303a207472616e736665722066726f6d20746865207a65726f206164604482015264647265737360d81b60648201526084016105f6565b6001600160a01b0382166116c35760405162461bcd60e51b815260206004820152602360248201527f45524332303a207472616e7366657220746f20746865207a65726f206164647260448201526265737360e81b60648201526084016105f6565b6001600160a01b0383166000908152602081905260409020548181101561173b5760405162461bcd60e51b815260206004820152602660248201527f45524332303a207472616e7366657220616d6f756e7420657863656564732062604482015265616c616e636560d01b60648201526084016105f6565b6001600160a01b03848116600081815260208181526040808320878703905593871680835291849020805487019055925185815290927fddf252ad1be2c89b69c2b068fc378daa952ba7f163c4a11628f55a4df523b3ef910160405180910390a3610cca565b600554600160a01b900460ff166107ba5760405162461bcd60e51b815260206004820152601460248201527314185d5cd8589b194e881b9bdd081c185d5cd95960621b60448201526064016105f6565b60006117fb61102c565b336000908152600d602052604090205460ff1661182a5760405162461bcd60e51b81526004016105f690611d0d565b6001600160a01b0383166000908152600f6020526040902054839060ff16156118655760405162461bcd60e51b81526004016105f690611c17565b6001600160a01b0384166118c75760405162461bcd60e51b815260206004820152602360248201527f46696174546f6b656e3a206d696e7420746f20746865207a65726f206164647260448201526265737360e81b60648201526084016105f6565b600083116119295760405162461bcd60e51b815260206004820152602960248201527f46696174546f6b656e3a206d696e7420616d6f756e74206e6f7420677265617460448201526806572207468616e20360bc1b60648201526084016105f6565b336000908152600e6020526040902054808411156119a05760405162461bcd60e51b815260206004820152602e60248201527f46696174546f6b656e3a206d696e7420616d6f756e742065786365656473206d60448201526d696e746572416c6c6f77616e636560901b60648201526084016105f6565b6119aa8482611d67565b336000908152600e60205260409020556119c48585611350565b6040518481526001600160a01b0386169033907fab8530f87dc9b59234c4623bf917212bb2536d647574c8e7e5da92c2ede0c9f89060200160405180910390a3506001949350505050565b600060208083528351808285015260005b81811015611a3c57858101830151858201604001528201611a20565b506000604082860101526040601f19601f8301168501019250505092915050565b80356001600160a01b038116811461076157600080fd5b60008060408385031215611a8757600080fd5b611a9083611a5d565b946020939093013593505050565b600060208284031215611ab057600080fd5b61086982611a5d565b600080600060608486031215611ace57600080fd5b611ad784611a5d565b9250611ae560208501611a5d565b9150604084013590509250925092565b600060208284031215611b0757600080fd5b5035919050565b60008060008060808587031215611b2457600080fd5b611b2d85611a5d565b9350611b3b60208601611a5d565b9250611b4960408601611a5d565b9150611b5760608601611a5d565b905092959194509250565b60008060408385031215611b7557600080fd5b611b7e83611a5d565b9150611b8c60208401611a5d565b90509250929050565b600181811c90821680611ba957607f821691505b602082108103611bc957634e487b7160e01b600052602260045260246000fd5b50919050565b60208082526028908201527f46696174546f6b656e3a2063616c6c6572206973206e6f742074686520626c6160408201526731b5b634b9ba32b960c11b606082015260800190565b60208082526021908201527f46696174546f6b656e3a206163636f756e7420697320626c61636b6c697374656040820152601960fa1b606082015260800190565b60208082526029908201527f46696174546f6b656e3a2063616c6c6572206973206e6f7420746865206d61736040820152683a32b926b4b73a32b960b91b606082015260800190565b634e487b7160e01b600052601160045260246000fd5b808201808211156105c6576105c6611ca1565b60208082526023908201527f46696174546f6b656e3a2063616c6c6572206973206e6f74207468652070617560408201526239b2b960e91b606082015260800190565b60208082526021908201527f46696174546f6b656e3a2063616c6c6572206973206e6f742061206d696e74656040820152603960f91b606082015260800190565b600060208284031215611d6057600080fd5b5051919050565b818103818111156105c6576105c6611ca156fea26469706673582212203b7ece8ba1e9c9c26f9052b566dd8bd7f94df2bc84a922b58bc73a7e3a5919d964736f6c63430008130033a264697066735822122060c57420fd2d82d14f4cc1620db880c1cc635faca373e950966cd4dad2b0603f64736f6c63430008130033",
  "linkReferences": {},
  "deployedLinkReferences": {}
}